:020000040801F1
:1000000058D9012025030108515301082D04010886
:10001000F15201088F350108EF900108000000003F
:10002000000000000000000000000000370301088D
:100030009938010800000000B50301086189010832
:100040003F0301083F0301083F0301083F03010884
:100050003F0301083F0301083F0301083F03010874
:100060003F0301083F0301083F0301083F03010864
:100070003F0301083F0301083F0301083F03010854
:100080003F0301083F0301083F0301083F03010844
:100090003F0301083F0301083F0301083F03010834
:1000A0003F0301083F0301083F0301083F03010824
:1000B0003F0301081D8A0108E18A01083F03010886
:1000C0003F0301083F0301083F0301083F03010804
:1000D0003F030108358D0108558D0108A98D0108E0
:1000E0003F030108197201083F0301083F0301089B
:1000F0003F0301083F0301083F0301083F030108D4
:100100003F0301083F0301083F0301083F030108C3
:100110003F0301083F030108618B01083F03010809
:100120003F0301083F0301083F0301083F030108A3
:100130003F0301088D3A01083F0301083F0301080E
:100140003F0301083F0301083F0301083F03010883
:100150003F0301083F0301083F030108D18D010857
:100160003F0301083F0301083F0301083F03010863
:100170003F0301083F0301083F0301083F03010853
:100180003F0301083F03010800F002F800F098F86F
:100190000AA090E8000C82448344AAF10107DA45E2
:1001A00001D100F08DF8AFF2090EBAE80F0013F09C
:1001B000010F18BFFB1A43F00103184740E8020083
:1001C00080E802000A444FF0000C10F8013B13F0E5
:1001D000070408BF10F8014B1D1108BF10F8015BA0
:1001E000641E05D010F8016B641E01F8016BF9D193
:1001F00013F0080F1EBF10F8014BAD1C0C1B09D1EA
:100200006D1E58BF01F801CBFAD505E014F8016B5B
:1002100001F8016B6D1EF9D59142D6D370470000ED
:100220000023002400250026103A28BF78C1FBD8FF
:10023000520728BF30C148BF0B6070476E2900F0DD
:10024000B782702900F09D83662926F0F18569291F
:1002500000F07282642900F06F82752900F06C82D0
:100260006F2900F03883782900F077830368DB0971
:1002700028BF41F08001632901F02F83732901F029
:100280003483E32901F05283002070471FB526F024
:10029000C2FD9DE8030001F04FF800F0DCFD01F025
:1002A0002BF804000020002125F000FF401C6060B6
:1002B0000020002125F010FFE0601FBD10B510BD2B
:1002C00002F023FA1146FFF7E1FF1DF0A7F902F053
:1002D0006BFC03B4FFF7F2FF03BC09F01BFD000049
:1002E000EFF308807047EFF3098070476846704766
:1002F0000B49D1F800C04A685CF8043B1068184408
:1003000042F8040B8C4528BFA1F1DC0C8A4228BFBF
:10031000A1F1DC02C1F800C04A6020F00040704743
:10032000C4C201200948804709480047FEE7FEE7AC
:10033000FEE7FEE7FEE7FEE7FEE7FEE7FEE7FEE795
:1003400004480549054A064B704700007D890108AD
:100350008901010858C3012058D9012058D3012030
:1003600058D30120EFF3108072B6704780F31088E5
:100370007047264C4FF6FF7525604FF0000484F35C
:100380000988234C4FF001052570224C4FF0805511
:10039000256062B6FEE730B41E4C4FF080552560F4
:1003A00030BC704730B41B4C4FF08055256030BCDA
:1003B000704700BF72B6EFF3098050B11EF0100F06
:1003C00008BF20ED108A203880E8F00F1249096834
:1003D000086000B5114880475DF804EB10481149EA
:1003E0000A7802700C4810490A680260106890E8A8
:1003F000F00F20301EF0100F08BFB0EC108A80F311
:1004000009884EF0040E62B6704700BF22ED00E08E
:100410008600001004ED00E08C0000106D62010801
:100420007B0000107C0000109400001070466946AC
:100430000DF064F9FFF7FEFF38B500281CBF016816
:100440000029184A23D1184B1C684FF6F0710C4054
:100450004CF24025AC421FBF1B6819404CF270247F
:10046000A14212D1114D296879B911490B68C3F322
:100470000B03B3F58A6F1FBF0968C1F30B0140F28C
:100480008343994204BF0121117028B905E0094B4B
:10049000994204BF012111704068BDE832400DF05F
:1004A000FFBA00BFE4C1012000ED00E0002004E03D
:1004B0000010005C000037487047000010B500F0E5
:1004C0001BFF001D10BD00BFE55B020070B50646B6
:1004D00000F00EFF056806F10B0020F00704B4429F
:1004E0009CBF002070BD2B466A68BAB11068A0425C
:1004F00010D304F1080188423CBF5068586007D30C
:100500005168101941601168091B0160586014603E
:10051000101D70BD13465268002AE7D121462846B7
:1005200000F0F6FE0028DED170BD70B50446051F50
:1005300000F0DEFE0068002C14BF446870BD002C83
:1005400018BFAC423CBF20466468F8D301680A1863
:10055000AA4218BF456003D12A68054611440160CC
:1005600028684119A1421CBF6C6070BD6168696058
:1005700021680844286070BD70B50D460646041F0A
:1005800000F0B6FED0F800C0C5B1E6B105F10B0031
:1005900020F00703AB423CBF002070BD20689842AA
:1005A00038BFDCF8042013D3C11A08292FD3E01870
:1005B00040F8041B2360FFF7B8FF28E03046FFF740
:1005C000B4FF002070BD2846BDE87040FFF77EBF35
:1005D000002A18BFA2423CBF94465268F8D30119C2
:1005E000914216D111680844984212D3C11A0829C1
:1005F0003CBF2060506808D35168E0184160216812
:1006000012681144C91A01602360CCF80400201D4F
:1006100070BD181FFFF75AFF050007D021680A1F99
:10062000211D00F06CFD201DFFF77FFF284670BDE7
:100630000FB4044910B503AA029801F05BF910BC8D
:100640005DF814FBD40000200FB41CB5084B06AABB
:100650007B4469460090059801F01DF9044600208E
:10066000694601F02BF920461CBC5DF814FB000024
:100670006912000070B5044685690068C10601D59D
:10068000302600E02026C00707D070BDD4E9012144
:1006900030469047206A401C20626D1EF6D570BD22
:1006A00070B5044685690078C00707D170BDD4E9EC
:1006B000012120209047206A401C20626D1EF6D543
:1006C00070BD09684A0501D540B27047C905FCD51F
:1006D00000B2704709684A0501D5C0B27047C90524
:1006E000FCD580B2704770B50C460546012A05D08E
:1006F0002878800600D5EA69002302E0012305E09E
:100700005B1C934202D2E05C0028F9D1A869E6188C
:10071000C01AA861286A184428622846FFF7AAFF71
:1007200004E0D5E9012114F8010B9047B442F8D355
:100730002846FFF7B5FF70BD2DE9F04106460024BD
:1007400010687529314616A510D0FFF7BAFF0028AA
:1007500002DA404213A507E031688A0701D512A5E5
:1007600002E0490704D511A5012401E0FFF7B2FF1B
:1007700000210A2206F1240709E0B0FBF2FCB0FBDD
:10078000F2F302FB1C00303078541846491C002854
:10079000F3D123462A463046BDE8F04100F00DBEB5
:1007A000000000002D0000002B00000020000000D1
:1007B00011680268006A530501D508700AE0D30584
:1007C00001D5088006E0130603D5C217C1E900026F
:1007D00000E00860012070472DE9FF5F15468A465A
:1007E0000446DFF8AC80F8440027D8E900103E4604
:1007F000CDE9001010E03AF816106A4602A801F0A0
:1008000003FC411C07D02178890603D5E269391819
:1008100091420DD80744761C2078800602D5E06905
:10082000B84205DDAE42E6DB3AF816000028E2D118
:10083000A069C01BA0612046FFF71CFFD8E900108B
:10084000CDE90010002017E03AF818106A4602A817
:1008500001F0DAFBB0F1FF3F81460BD000250DF12E
:10086000080B05E0D4E901211BF8050090476D1C39
:100870004D45F7D308F10100B0428046E4DB206A21
:10088000384420622046FFF70BFFBDE8FF9F0000C1
:100890004AD5020030B4002100F1240408E002F03F
:1008A0000705D208303542EA4372DB086554491C1B
:1008B00052EA0305F3D10468002310A2250707D5E7
:1008C000A40600D421B1C46901230DA2641EC46131
:1008D00030BC00F072BD10B5044621461068FFF729
:1008E000F9FE02462046BDE810400023D2E7D21DA3
:1008F00022F00701D1E90023CCE70000000000004E
:1009000030000000F0B40D460188090502D5214CE5
:100910007C4402E01F4C7C440E34002100F124068C
:1009200008E002F00F071209E75D42EA03721B09B3
:100930007754491C52EA0307F3D1027800231207C7
:1009400004D5702D06D009B1022311342246F0BC23
:1009500000F033BD01231034F8E770B504460D46AE
:1009600021461068FFF7B6FE024629462046BDE83C
:1009700070400023C6E7D21D22F00703D3E900230D
:10098000C0E70368126843F0200303600823C361D3
:100990000023B7E728D402002DE9F05F894604461A
:1009A0004FF0000ADFF874B1FB44C0F820A02046E5
:1009B000E1688847002874D0252806D0D4E90121B1
:1009C0009047206A401C2062F1E700265F462046DF
:1009D000E16888472028054607DB312D05D27819C4
:1009E00010F8200C08B10643F1E7B00701D526F056
:1009F0000406C4F81CA00027C4F818A02A2D09D0AA
:100A0000284609F080F938B304EB8708303DC8F870
:100A1000185019E059F8041B204604EB8702916135
:100A2000E1688847012F054618D1E069002820DADF
:100A300026F020061DE0D8F8180000EB800005EB3A
:100A400040003038C8F818002046E168884705465D
:100A500009F059F90028EED1012F0AD02E2D08D126
:100A60002046E16888477F1C0546022F46F0200695
:100A7000C4DBA069002803DA404246F00106A06109
:100A8000F00701D026F010066C2D0BD0682D09D090
:100A90004C2D39D06A2D35D0742D35D07A2D33D0E8
:100AA00016E038E0E1682F4620468847B842054600
:100AB00009D16C2F26D04FF48060E16806432046B0
:100AC0008847054604E06C2F1AD04FF48070064327
:100AD0000DB3A5F14100192802D8203546F400666F
:100AE0004A462946204626604E46FFF7A7FB80B1BE
:100AF00001280BD0F61D26F0070000F1080956E783
:100B00004020E4E78020D8E70020D6E706F104097A
:100B10004DE7284652E7206ABDE8F09FB8D30200AF
:100B20000FB400B58DB010A9099000910B904FF053
:100B3000FF300A9000200C90064878440690064842
:100B400078446A4607900F9909A801F08BF90DB017
:100B50005DF814FB471300005F1300002DE9FF5FF1
:100B60001D464FF0FF3B91464FF000085F46D5E928
:100B70000146A96901987F1C8847296A82468847EF
:100B80000028F6D1BAF1FF3F0CD0002E24F4C06447
:100B900019DD600614D5BAF12B0F09D0BAF12D0F6B
:100BA0000ED103E0584604B0BDE8F09F44F48064E1
:100BB000A96901987F1C8847761E8246002E02DDB7
:100BC000BAF1300F03D0B9F1000F26D032E0A96995
:100BD000761E01987F1C44F400748847002E8246DC
:100BE00005DDBAF1780F06D0BAF1580F03D0B9F18C
:100BF000000F10D01EE0B9F1000F02D0B9F1100FB4
:100C000018D1A969761E01987F1C24F400748847C6
:100C10008246102002E0082000E00A20814609E018
:100C2000A96908FB0908761E01987F1C44F400742A
:100C300088478246002E05DD4946504600F082FE78
:100C40000028EDDAE96901988847A00502D46FF021
:100C50000100A8E7E00725D1600613D5600502D59D
:100C6000C8F1000000E0404629680A1D2A600968B2
:100C7000220501D5087015E0220701D5088011E092
:100C800008600FE02868011D29600068210502D571
:100C900080F8008006E0210702D5A0F8008001E07E
:100CA000C0F8008038467EE72DE9FF5F4FF000086E
:100CB0009946144646469169D2E901A7DDF838B055
:100CC00001988847054659EA0B0005D009E0A1695B
:100CD0000198761C88470546216A284688470028DF
:100CE000F5D1681C03D05FEACA7005D015E04FF05B
:100CF000FF3004B0BDE8F09F2068011D2160D0F8EE
:100D000000800AE05FEACA7001D108F8015BA169BE
:100D1000761C01987F1E88470546002F1ADD681C47
:100D200018D0B9F1000F0DD0E81705EBD0604211D3
:100D300020F01F0059F822102A1A01209040014289
:100D4000E0D107E0BBF1000FDCD12846216A8847DB
:100D50000028D7D0E16901988847BBF1000F07D17F
:100D6000002E05DD5FEACA7002D1002188F800106C
:100D7000A068B84203DDBBF1000F03D017B16FF0DC
:100D80000100B6E73046B4E770B5064600F0B8FAA1
:100D90000468054630460A22002100F00FF82C6056
:100DA00070BD70B5064600F0ABFA046805463046E3
:100DB0000A22002100F002F82C6070BD2DE9F047F6
:100DC00091460F4680460446002614F8015B2DB17B
:100DD000FFF774FB0068405DC007F6D12B2D02D0F1
:100DE0002D2D18D0641E4A463946204601F06AF877
:100DF00027B13968A14201D1C7F800804FF0020441
:100E000071050BD54042002803DD00F079FA04603B
:100E1000A007BDE8F08746F48066E4E70028F8DA2A
:100E200000F06EFA04606FF00040F2E70B4910B575
:100E3000A1F17C020A4CC2E93712372106E000EB2F
:100E4000104342F82130074B00FB03400B1EA1F179
:100E50000101F4DC10BD0120E8E7000064C20120BC
:100E6000E119D666CD0D0100014A01F0EDB8000090
:100E7000F8030020401ECAB210F8011F8A4202D0B7
:100E80000029F9D10020704730B503461D781DB107
:100E90000A4603E0AC4201D1181A30BD12F8014BEA
:100EA000002CF7D15B1CF1E730B503461D783DB14E
:100EB0000A4612F8014B1CB1AC42FAD15B1CF5E7B3
:100EC000181A30BD30B505460B462A4613F8014BBB
:100ED00012F8010B08B1A042F8D01CB1002802D0D2
:100EE0006D1CF1E7284630BD40EA010310B59B07B1
:100EF0000FD1042A0DD310C808C9121F9C42F8D084
:100F000020BA19BA884201D9012010BD4FF0FF3034
:100F100010BD1AB1D30703D0521C07E0002010BD4A
:100F200010F8013B11F8014B1B1B07D110F8013BD6
:100F300011F8014B1B1B01D1921EF1D1184610BDB7
:100F400040EA0103024630B59B0710D14FF001344F
:100F500000E008C208C91D1B9D4315EAC41FF8D054
:100F600013F0FF0102F8011B0DD01B0AF8E711F87E
:100F7000013B002B02F8013B05D011F8013B002B8F
:100F800002F8013BF3D130BD10B5431C02E010F86C
:100F9000011B71B18107FAD14FF0013202C88C1ADE
:100FA0008C4314EAC211F9D0C01A0A0603D0C01E3D
:100FB00010BDC01A10BD0A0401D0801E10BD090268
:100FC000FCD0401E10BD40EA010370B59B072ED136
:100FD0004FF00136042A2AD308C810C99D1B9D432F
:100FE000121F15EAC61517D0D8B2E1B2401A50EA5E
:100FF000056110D198B2A1B2401A50EA05410AD158
:1010000023F07F4024F07F41401A50EA052102D1AD
:10101000180EA0EB146070BDA342DBD018BA21BA41
:10102000884201D9012070BD4FF0FF3070BD0AB970
:10103000002070BD10F8013B11F8014B63B1A342D1
:101040000AD1521E08D010F8013B11F8014B1BB118
:10105000A34201D1521EEDD1181B70BD421E12F8E1
:10106000013F002BFBD111F8013B002B02F8013BA3
:10107000F9D17047032A40F2308010F0030C00F0E1
:10108000158011F8013BBCF1020F624498BF11F8C2
:1010900001CB00F8013B38BF11F8013BA2F104027B
:1010A00098BF00F801CB38BF00F8013B11F00303F3
:1010B00000F02580083AC0F0088051F8043B083A57
:1010C00051F804CBA0E80810F5E7121D5CBF51F8F9
:1010D000043B40F8043BAFF30080D20724BF11F873
:1010E000013B11F801CB48BF11F8012B24BF00F8D8
:1010F000013B00F801CB48BF00F8012B704710B549
:10110000203AC0F00B80B1E81850203AA0E81850FF
:10111000B1E81850A0E81850BFF4F5AF5FEA027CC0
:1011200024BFB1E81850A0E8185044BF18C918C02F
:10113000BDE810405FEA827C24BF51F8043B40F8D0
:10114000043B08BF7047D20728BF31F8023B48BFB5
:1011500011F8012B28BF20F8023B48BF00F8012BF3
:10116000704702F0FF0343EA032242EA024200F022
:1011700002B84FF000020429C0F0128010F0030CF6
:1011800000F01B80CCF1040CBCF1020F18BF00F87A
:10119000012BA8BF20F8022BA1EB0C0100F00DB829
:1011A0005FEAC17C24BF00F8012B00F8012B48BF87
:1011B00000F8012B70474FF0000200B5134694462B
:1011C0009646203922BFA0E80C50A0E80C50B1F19F
:1011D0002001BFF4F7AF090728BFA0E80C5048BFB3
:1011E0000CC05DF804EB890028BF40F8042B08BF51
:1011F000704748BF20F8022B11F0804F18BF00F84D
:10120000012B704710B5044610F0030F08BF11F012
:10121000030F40F015804FF0013E121FC0F20E8008
:1012200051F8043BA3EB0E0C2CEA030C1CEACE1C79
:1012300008BF40F8043BF0D0A1F1040102F1040220
:10124000521E08DB11F8013B002B00F8013BF7D1DF
:101250001146FFF78EFF204610BD00004FF0013C05
:1012600050F8042B51F8043B9A4221D1A2EB0C0315
:10127000934313EACC1317D150F8042B51F8043BD5
:101280009A4215D1A2EB0C03934313EACC130BD172
:1012900050F8042B51F8043B9A4209D1A2EB0C03FD
:1012A000934313EACC13DBD04FF00000704700BF2C
:1012B000D01A01BAB1FA81F101F0180122FA01F055
:1012C000CB40C1F12001DBB2C0B2C01A2CFA01F34D
:1012D000D11A914311EAC311E6D17047014900F0D8
:1012E000D5BE0000CCC201207047704770477047E0
:1012F0000048704700C301200048704718C3012010
:1013000000487047F8C20120704770477047704727
:1013100038B504460A4600206946AFF3008000282D
:1013200008BF38BD02460099204600F00FFF01209B
:1013300038BD012001F0E2B9F8B5AFF300800546F1
:1013400000200C46102000BF0646A819A0420DD967
:10135000324669460020AFF30080070008BF01F065
:10136000CDF90098A04218BF0546C419FFF7C0FF89
:1013700005600746F01D20F007004619284600F0DA
:101380000AF8B44208BFF8BDA21B31463868BDE870
:10139000F84000F0DBBE00210160C0E90110704799
:1013A0001020704710B5FFF7ABFF006810BD10B5F7
:1013B0000446FFF7A5FF046010BD2DE9F0470D4678
:1013C00099469246044600F124080168880604D52F
:1013D000E06921F01001216000E00120A84201DD58
:1013E000471B00E00027A1697A1902EB0900081ADF
:1013F000A0612078C00602D42046FFF73BF9002602
:1014000008E0D4E901211AF806009047206A401C40
:10141000761C20624E45F4DB2078C0060AD52046B3
:10142000FFF728F906E0D4E9012130209047206A2F
:10143000401C2062381EA7F10107F4DC07E0D4E964
:10144000012118F805009047206A401C2062281EE0
:10145000A5F10105F3DC2046FFF722F9207800060C
:1014600002D50220BDE8F0870120FBE770472DE997
:10147000FF4F0C461E464FF0FF378BB0D2E90001FC
:10148000DDF860800A908A46C1F30A5505B93D46E9
:10149000002108464FF00000BAF1000F00F44000B0
:1014A00005DA00EB80004FF4400101EA50004FEAFA
:1014B0009059B9F1010F00DDB9460A9850EA4A0087
:1014C0000ED044F61050A5F2FF3545432F14B8F165
:1014D000000F1ED07542291E1EDDC9F100021CE05E
:1014E000B8F1010F4FF0000001D0302103E0F243CA
:1014F00005E02154401CB042FBDB304600220021B5
:1015000021540B99C1F80880C1E900200FB0BDE853
:10151000F08FBD1B6D1CDEE74A4600DA694206A863
:1015200001F076F806AB93E8070003AB83E8070009
:1015300050460A9901F09AFB8DE80700A0F500508B
:101540001F3800900398002D0ADD42F21F014A4621
:101550000844002303A90390684601F045FE09E012
:10156000A0F500504A461F38002303A9039068469F
:1015700001F064FE8DE807000004000C03D04FF07A
:10158000FF30410800E01046B8F1000F03D0002200
:10159000009215461EE0751E05D400F0F1FD3032B4
:1015A00062556D1EF9D5B3460122084302D00022D0
:1015B0007F1C04E02078302801D100227F1E002A01
:1015C000099784D01DE0112D07DA00F0D9FD3032E3
:1015D00062556D1C50EA0102F5D1084302D0009813
:1015E000C8B10EE00021681E05E0235C625C635414
:1015F0002254401E491C8142F7DBAB46A81B401E0B
:101600000990002004F80B000B98099AC0F8088094
:10161000C0E9002B7AE711264FF0000857E72DE9C3
:10162000F04F88460446D21D22F0070191B0D1E95F
:101630000001CDE90A0107F077FF02460B98C00FC1
:1016400001D02D2007E02068810701D52B2002E082
:10165000202101EAC000032A099001D0072A05DBF6
:1016600003464146204600F0D9FD0BE12078800674
:1016700001D5E06900E00620B8F1650F814606D08B
:10168000B8F1660F18D0B8F1670F70D131E00020C3
:10169000B9F1110F009001DB112301E009F1010301
:1016A0000AAA01A90CA8FFF7E2FEDDE90C700026EA
:1016B00009F10105834647E001204B4600904FF0B9
:1016C00000470AAA01A90CA8FFF7D1FEDDE90DB079
:1016D0000C995D46002610B909F101000D18B9EB0F
:1016E000050003D4C0F1FF3609F10105A5EB09009F
:1016F0002BE0B9F1010F01DA4FF001090020B9F137
:10170000110F0090484601DD112300E003460AAAAC
:1017100001A90CA8FFF7ABFEDDE90C704D460026D1
:101720008346207800070AD4AB4500DA5D4601A85D
:10173000012D04DD411911F8011C302907D04F4556
:1017400002DA17F1040F04DA012082460FE06D1E61
:10175000EEE7002F02DCED1B3E4403E0781CA842BC
:1017600000DD7D1CB81B00F1010A4FF00047207816
:10177000000703D4AA4501DB4FF0FF3A0021B7F17F
:10178000004F0DF143088DF8431024D002202B2385
:10179000002F01DA7F422D230A21021EA0F1010051
:1017A00000DC5FB197FBF1FC97FBF1F201FB1C7CC5
:1017B00017460CF1300C08F801CDEEE7A8F1010056
:1017C00003702188090501D5452100E06521A0F1BC
:1017D000010800F8011C09980FA9A1EB0807FF1DDB
:1017E00000B10120411901EBEA70A1693844081ADF
:1017F000401EA0612078C00602D42046FEF73AFFC2
:10180000099828B1D4E901219047206A401C206240
:101810002078C00622D52046FEF72CFF1EE0002EC1
:1018200004DBB34502DD01A8805D00E03020D4E98F
:1018300001219047206A401C2062761CAAF1010019
:101840005FEA000A0AD1FFF757FDC0680168405CF3
:10185000D4E901219047206A401C2062281EA5F18E
:101860000105DCDC07E0D4E9012118F8010B904701
:10187000206A401C2062381EA7F10107F3DC2046D5
:10188000FEF70EFF032011B041E6000001694A1C7B
:1018900002610878704700B58FB0CDE901310021B1
:1018A000059105497944CDE9031011466846FFF7D3
:1018B00073F80FB000BD0000E5FFFFFF0A6802F8F3
:1018C000010B0A60704710B5436913B1AFF3008094
:1018D00001E0FEF708FF012010BD127800F124019D
:1018E0000A7000224A700122EDE711684FF0FF32C2
:1018F000E9E70000074B70B50D467B44FFF7CBFFCF
:101900000446284600F0F6FE10B14FF0FF3070BDDF
:10191000204670BD7B17010010B5436913B1AFF3CA
:10192000008001E0FEF758FF012010BD128800F191
:10193000240182840022C2840122EDE711684FF065
:10194000FF32E9E73A2800D2303820F02002412A5D
:1019500001D3A2F13700884201D34FF0FF30704726
:101960002DE9FF4F06468BB00878FF2806D0491CAA
:101970002D2805D000244FF0000908E000200CE0DD
:101980000124F8E709EB8903491C00EB43090878B7
:10199000FF28F7D114B1C9F1000081461078002565
:1019A0002C46AA4629462D2801D02B2804D1521CAA
:1019B0002D2813D0002082468B461078FF280FD0A8
:1019C0004FF0000C0A21521CA5FB017804FB018199
:1019D00005FB0C11C5194BEB0104EEE70120EAE70A
:1019E000002108464FF00000BAF1000F02D000EBD2
:1019F00080004008C0F38157012F01DD4FF0FF3711
:101A00000E9955EA040009EB01080BD04FF00209CA
:101A100018F5FA7F16DA4FEACA70002F706008DDF9
:101A2000012007E04FEACA70C6E900B00FB0BDE878
:101A3000F08F00203060FFF763FCC0F800901821A1
:101A4000084616E0B8F5FA7F18DD002F02DAF748ED
:101A5000784401E0F6487844D0E90010C6E9001067
:101A600040EACA707060FFF74BFCC0F80090142188
:101A700008460FB0BDE8F04F25F0D7B90021084661
:101A80004FF00000B8F10001099002DAC7F100023E
:101A900000E03A4601DAC8F1000106A800F0B8FDFE
:101AA00006AB93E8070003AB83E8070044F23E006F
:101AB0005BEA04010090584604D144F21E012C4612
:101AC0005D460091210C0904014306D100992404CC
:101AD00044EA15442D041039009104F07F4101437C
:101AE00006D10099240244EA15642D0208390091B8
:101AF00004F07041014306D10099240144EA1574B1
:101B00002D01091F009104F04041014306D10099C5
:101B1000A40044EA9574AD00891E009104F00041D0
:101B2000084304D100986D196441401E00904FF0A5
:101B300001033A466846B8F1000FCDE9014503A913
:101B400002DD01F090FB01E001F063FBBAF1000F50
:101B500004460D4601D084F00044002108464FF0B1
:101B60000000099940F2FF77484010F00C0F07D1B0
:101B700024F00040284303D0C4F30A50B84212D1E5
:101B8000FFF7BEFBC0F80090C4F30A50B8420AD178
:101B9000A8487844D0E90010C6E9001004F00041DC
:101BA0000843706042E7C6E900543FE72DE9FF4F64
:101BB0001F464FF0000A4FF0FF38454691B0D7E975
:101BC0000146CDF83CA0FFF797FBC0680168405C78
:101BD0001090B96912986D1C8847396A8146884708
:101BE0000028F6D1B9F1FF3F0AD0002E24F4D064CA
:101BF00011DDB9F12B0F08D0B9F12D0F0BD102E097
:101C0000404615B013E744F48064B96912986D1C1E
:101C10008847761E8146600504A901D52D2000E085
:101C20002B20002E01F1010B0DF130088DF8100072
:101C30003FDDB9F1690F08D0B9F1490F05D0B9F10D
:101C40006E0F02D0B9F14E0F1CD13B4601A8009592
:101C500080E85002DDE912126FF0020025F04EF923
:101C6000C11CCED10EE0B96912986D1C884781461F
:101C70001398761E44F4007405600F98401C002EE3
:101C80000F9016DDB9F1300FEDD0B9F1780F02D019
:101C9000B9F1580F0DD10F9801280AD13B46CDE973
:101CA0000054DDE91212001F029625F025F9C11C2F
:101CB000A7D1109989453ED144F0800406E01399DC
:101CC000681CAAF1010A44F400740860B9696D1C2B
:101CD0001298761E884730288146F0D02BE0109964
:101CE000894505D1200603D4761E44F0800418E00F
:101CF000484608F008F808B3761E0DF123018B451D
:101D000044F4007408D2A9F130000BF8010B20064E
:101D100007D5AAF1010003E0200602D40AF1010070
:101D20008246A00502D51399681C0860B96912980B
:101D30006D1C88478146002ED1DC53E0002E51DD1A
:101D4000B9F1650F02D0B9F1450F4BD1A00549D5C6
:101D5000B9696D1C1298761E24F440748847002ED1
:101D600081460CDD2B2804D0B9F12D0F07D144F4A6
:101D70008074B96912986D1C8847761E8146E0050B
:101D800001D52D2100E02B2108F8011BCDF80080A2
:101D900021E0761E0DF13901884544F400740CD21F
:101DA000A9F1300010F0FF0088F8000002D100997E
:101DB000884509D908F1010806E0E00501D51E486B
:101DC00001E042F20F708246B96912986D1C884793
:101DD000814613980560002E04DD484607F093FF06
:101DE0000028D6D1F96912988847FF2053468BF80E
:101DF000000088F8000000200A900B9004AA0CA9AB
:101E00000AA8FFF7ADFDA00502D46FF00100F8E6C7
:101E100014F0240F12D0E0071CD13868DDE90A1253
:101E2000031D3B600068C0E9001213E0F0CF020020
:101E3000E2CF0200A6CE0200F1D8FFFF0AA9684651
:101E400007F04EFFE00705D13868009A011D3960A0
:101E5000006802602846D4E60268114413780160E5
:101E600018467047D1600549794451610449794465
:101E7000116200211161114600F010BAEDFFFFFF61
:101E800099030000426842B1016811F8013B23B197
:101E9000521EC0E90012184670470121C160881E19
:101EA000704742685AB1C368016843B983688B427E
:101EB00005D0491E521CC0E90012002070474FF0A7
:101EC000FF3070472DE9F05F824615468B460027AC
:101ED0000AF10104B9460078302801D09DB113E021
:101EE00014F8010B0127782803D0582801D045B1F8
:101EF0000AE00DB1102D07D1002714F8010B1025B1
:101F000002E0082500E00A250026B0460EE005FBA9
:101F1000080005FB06F101271FFA80F801EB1046C7
:101F2000B6F5803F00D3B94614F8010B2946FFF7F8
:101F300009FD0028EBDABBF1000F05D00FB1641EDC
:101F400000E05446CBF80040B9F1000F06D0FFF78F
:101F5000D7F902210160C81EBDE8F09F48EA06409B
:101F6000FAE700000FB4002300B589B00CA9009176
:101F70000B99CB60214B7B440693214B7B44079309
:101F800004236FF00042CDE901321E4A7A446B46C9
:101F900008920246002024F0ADFF09B05DF814FB62
:101FA00070B506464FF0FF3015460C46324686B0F7
:101FB0000091CDE9010169460020049004A8FFF7D3
:101FC000D1FF02460498211825B108B1084600E067
:101FD00020462860049800280DD0002A02DD0098D1
:101FE000884208D03246081B69460094CDE90104B6
:101FF00004A8FFF7B7FF06B070BD00000BFFFFFF9E
:1020000023FFFFFF7B02000070B516460C46054615
:10201000FEF754FA036893F80101012806D0FF2C5B
:102020000FD8185D68B101202C7070BDD3F807017E
:102030003246214603F2071303442846BDE87040A8
:1020400018474FF0FF3070BD2DE9F04115460E46A0
:10205000040002D12C6804B90BA42046FEF724FF2B
:102060000444207870B1274631463846FEF70CFF0D
:102070000444207810B1002004F8010B38462C608D
:10208000BDE8F0810027F9E70000000070B50C46BC
:10209000016800204A1C3ED03C22B1FBF2F302FB57
:1020A0001313B1FBF2F12360B1FBF2F302FB131344
:1020B000B1FBF2F118226360B1FBF2F302FB1313E0
:1020C000B1FBF2F146F2E0320A440721A360B2FB11
:1020D000F1F301FB132140F2B553B2FBF3F5A1611B
:1020E000B2FBF3F103FB15228900B2F5B77F08D3E9
:1020F0009B10521EB2FBF3F52944B2FBF3F503FB30
:1021000015220F4BE261616189077B440CD03B2AA9
:102110000AD3521C08E02C212046FFF74CF801207E
:10212000E0600AE0521A401C195C9142FAD9521C34
:10213000C4E903204FF0FF302062204670BD00004C
:10214000BABC020000487047F8C20120034640684C
:102150008C46002818BF88423CBF03464068F8D32D
:1021600018681844884207D00CF1030020F00700DB
:10217000001D411A521A0146081D0A60FEF7D5B922
:1021800030B5B0F10A024FEA900E71F100034EEA49
:10219000817EB0EB0E0061EB91014FEA101E4EEA1A
:1021A000017E10EB0E0041EB11114FEA102E4EEAAA
:1021B000016E10EB0E0041EB11214FEA104E4EEA7A
:1021C000014E10EB0E0041EB1141401841F10001AE
:1021D0004FEAD00040EA41704FEAD10110EB800590
:1021E0004FEA810444EA907444EB01046D1944EB16
:1021F0000404521BA3414FF0000348BF0A3200D52C
:1022000030BD401C41F1000130BD10B50446FEF761
:1022100055F90068005D00F0010010BD2DE9F041A6
:102220001F46044603260168072A01F4006004DB08
:1022300008B116A505E016A503E008B115A500E054
:1022400015A521F010002060A069C01EA0610FB18B
:10225000401EA0612046FEF70DFA4FB1D4E90121DE
:1022600038469047206A401C2062C01C206206E06D
:10227000206AFAE7D4E9012115F8010B9047761E90
:10228000F8D22046FEF70CFABDE8F0814E414E0030
:102290006E616E00494E4600696E66002DE9F34F8F
:1022A0004FF0000A0C4656468DB001200C9001F10B
:1022B0000C000B9062690B9801219047051E2DD0F0
:1022C000252D2CD0216A8847C0B162690B98012165
:1022D0009047216A88470028F7D16269411E0B9810
:1022E000904700E0761CA1690D988847216A8847CD
:1022F0000028F7D1E1690D988847DBE7A1690D98BF
:102300008847A842074601D1761CD3E7E1690D98BA
:1023100088477F1C02D1BAF1000F6FD06CE162696F
:102320000B9800273D46394690472A2804D1626918
:102330000B98012190470125DFF8D08262690B9844
:1023400001219047A0F130010A290AD24745E5DC76
:1023500007EB870100EB4107303FDFD445F0100564
:10236000ECE7E90601D46FF000476C280AD04C284E
:1023700014D0682815D06A280DD074281CD07A286B
:102380001AD01DE062690B98012190476C2802D099
:1023900045F0040514E045F002050DE045F0200588
:1023A0000AE062690B9801219047682802D045F045
:1023B000080505E045F4006562690B980121904726
:1023C000C4E9015765283DD019DC58287AD00CDCC7
:1023D000452837D004DC252826D041289ED131E07D
:1023E00046282FD0472899D12CE05B2877D0612848
:1023F00028D063287CD0642823D15AE0F7E06F28E6
:1024000048D008DC66281DD067281BD0692821D059
:102410006E2816D127E0702845D0732868D075281B
:1024200047D078280DD14DE0A1690D98884725281F
:1024300005463FF469AFE1690D9888476D1C3FF48C
:102440006AAFD9E00D9923466A466FF0010024F087
:1024500051FDC6E045F0400023464FF000026060A9
:10246000A80736D43EE0E8077FF447AF2068011D97
:1024700021600068290501D506701BE7290701D5F1
:10248000068017E7A90703D5F117C0E9006111E736
:1024900006600FE745F0400023464FF008026060F9
:1024A000A80716D41EE040F60E0125EA0100606080
:1024B00016E045F0400023464FF00A026060A8078E
:1024C00007D40FE045F040006060A80708D5234618
:1024D00010220D996FF00100AFF3008081E007E05A
:1024E000102223460D996FF00100FEF737FB78E0CC
:1024F0004FF0000963284F46C8464B46CB4602D0F2
:102500005B2807D039E02079C00601D40120A06003
:10251000012732E06269D4F80CB00B980121904792
:102520005E2807D14FF0010949466269D4F80CB022
:102530000B989047216939B900210A4603AB43F84B
:102540002120491C0829FADBD8B3216949B308F1D5
:10255000010862690B98012190475D28F4D1B9F117
:10256000000F09D0002003A951F82020D24341F8E0
:102570002020401C0828F7DB03AB206900282079C5
:102580004FEA40701ED05B462246CDF80080CDE970
:1025900001970D9900286FF0010020DAAFF3008059
:1025A0001FE0C11703AA00EBD1614B1121F01F01FD
:1025B00002EB8302411A1368012088400343136031
:1025C000C7E719E00D99224600286FF00100009737
:1025D00002DAAFF3008004E0FEF766FB01E0AFF340
:1025E000008000280ADA401C06D10C9820B14FF078
:1025F000FF300FB0BDE8F08F5046FAE7E90701D190
:102600000AF1010A064400200C9053E6CCCCCC0C15
:102610002DE9F047814616468AB0354878440DC802
:102620008DE80D0032487844801C03AC0DC884E866
:102630000D0041F69B300844372190FBF1F290FBEE
:10264000F1F5A5F1800501FB12041B3C02D56442A3
:10265000012000E00020DFF898A080460027FA441F
:10266000AAF1BE0A0EE0E0070AD03246684607EB40
:10267000470101230AEB810100F0E0FD8DE807002E
:1026800064107F1C002CEED1194F7F44AE3F19E03F
:10269000E80715D007EB04100DF1180A90E80E00BA
:1026A0008AE80E00C068F04201D1981908903246BD
:1026B000012306A903A800F0C1FD03AB83E80700CE
:1026C0006D10641C002DE3D14FF0010332466946C2
:1026D000B8F1000F03A802D000F086FD01E000F081
:1026E000ADFDC9E90001C9F808200AB0BDE8F087CE
:1026F00030B80200007B00F08000704710B500F099
:1027000061FABDE8104000F058BA7546FFF71AFDAF
:10271000AE4605006946534620F00700854618B0CE
:1027200020B5FDF70DFEBDE820404FF000064FF04C
:1027300000074FF000084FF0000B21F00701AC46F6
:10274000ACE8C009ACE8C009ACE8C009ACE8C00915
:102750008D4670472DE9FF4F1F464FF03C0987B06B
:102760004FF00042DDE9141001F10108DDF858A036
:1027700002EA405003900020059083460546044637
:102780000490B969461E08988847AAF1010A029088
:10279000BAF1000F3BDD02982E2815D01021FFF76B
:1027A000D1F800282EDB4FF0010B0599014317D01B
:1027B000B9F1000F0BDB4A46C11700F02BFA0543B5
:1027C0000C43A9F1040905E0012004900BE008B1D5
:1027D00045F0010501200590049820B9361D02E05E
:1027E000049800B1361FB969089808F101088847B4
:1027F000BBF1000FAAF1010A0290C9D00999C1F8F2
:102800000080C5E70298702808D0502806D0F969E2
:1028100008988847BBF1000F14D04FE000200290C9
:102820000120BBF1000F049009D0B969089808F1A4
:1028300001088847AAF10109B9F1000F07DCF9691D
:10284000089888476FF001000BB0BDE8F08F2B2887
:1028500004D02D280CD14FF0FF300490B9690898AE
:1028600008F101088847A9F10109B9F1000FE6DD77
:10287000411CE4D00A21FFF765F80028DFDB02994C
:1028800008F1010801EB810100EB41000290B969F8
:10289000089888470A21FFF755F8099AA9F1010914
:1028A000B9F1000FC2F8008001DD0028E7DAF9690C
:1028B000089888470499029800FB016655EA0400CD
:1028C00004D004F04041090002D006E0039898E0EB
:1028D000A40044EA9574AD00B61E04F0004108005F
:1028E00002D16D196441761E159810F0240F03D0A3
:1028F0004FF00B095C4803E04FF028096FF07D00B2
:102900008246564507DAAAEB06018944B9F1410F20
:1029100001DD4FF0410901200021A9F1010200F081
:1029200079F9024628400B462140084301D0012195
:1029300000E00021501E029143F1FF312840214068
:10294000084301D0012000E000200299834651EAAB
:102950000B014FD0002108464FF00000039900F40E
:10296000400039B100EB80004FF4400100EBD07023
:1029700001EA60008015012802DD4FF0FF3000E021
:1029800013D0401C36D0029860B3BBF1000F0CD1BD
:102990004A460120002100F03DF92840214008432B
:1029A00001D0012000E00020E0B101204A460021D2
:1029B00000F030F9034640190A4661412D1A8C4156
:1029C00011D3B9F1400F09DD159810F0240F02D092
:1029D000AAF1340603E0AAF1170600E0761C0025F0
:1029E0004FF0004406E05B1E42F1FF3220EA03058F
:1029F00021EA0204CAF10100B04206DA1B49039839
:102A000008430190002000900EE0039AC4F3D32104
:102A1000E80A0A43164940EA44500A433146CDE9E0
:102A20000002684607F065F9159810F0240F0BD0E6
:102A30001598C00715D13868DDE90012031D3B6009
:102A40000068C0E900120CE002A8694607F048F9E6
:102A50001598C00705D13868029A011D39600068D1
:102A600002604046F0E6000002FCFFFF0000F07F3D
:102A70000000F03F2DE9FF4F92461D4685B04FF014
:102A80000041DDE9124BDDE914727F1E01EA4B5073
:102A9000414940F0FF4940EA0108002122F02000AE
:102AA0004928049102D04E2828D04CE03BA00126B2
:102AB00007C88DE80700A9690698641C88477F1E2F
:102AC000014606D41DF8060018B121F0200181420C
:102AD0000BD0E96906988847032E34D0082E32D0EF
:102AE0006FF0010009B0BDE8F08F761C032E01D015
:102AF000082EE0D1601CCAF80000DCE7A96906983E
:102B0000641C88477F1E2AD420F02000412826D14B
:102B1000A9690698641C88477F1E20D420F02000F5
:102B20004E281CD1A9690698641C88477F1E48F46A
:102B3000002849F48009CAF8004001D4282806D0AA
:102B4000E969069888475FEACB7012D022E0A9694C
:102B50000698641C88477F1E01D4002803DAE969BF
:102B600006988847BCE72928F1D1641CCAF80040C0
:102B7000E9E71BF0240F07D028680499031D2B6098
:102B80000068C0E9001805E02868021D2A60006896
:102B9000C0F800902046A5E70000F07F494E464966
:102BA0004E4954590000000010B50446AFF30080B0
:102BB0002046BDE81040FDF78CBB002801D007F08F
:102BC000A9B8704710B5012805D0002103A000F076
:102BD00034F8012010BD09A1F8E70000534947521D
:102BE000544D454D3A204F7574206F6620686561DD
:102BF00070206D656D6F7279000000003A204865A5
:102C00006170206D656D6F727920636F727275707F
:102C100074656400B2F120030AD5C2F1200301FA01
:102C200002F120FA03F300FA02F041EA03017047CF
:102C300000FA03F14FF00000704770B505460C46EE
:102C40000A2000E06D1C07F067F835B128780028ED
:102C5000F8D102E0641C07F05FF814B12078002876
:102C6000F8D1BDE870400A2007F056B85FEA400C82
:102C700008BF91F0000F4FEA8C234FEAC12243EACC
:102C800051514FEA1C5018BF00F5F0404FEA300098
:102C900018BF41F000415FEA6C5C00F02980BCF194
:102CA000FF3F08BF40F080407047130C06BF12047E
:102CB0004FF0100C4FF0000C130E04BF12020CF179
:102CC000080C130F04BF12010CF1040C930F04BF86
:102CD00092000CF1020CD30F04BF52000CF1010C56
:102CE00011464FF00002A0F11F00A0EB0C0070474E
:102CF00011F0004F08BF704731F000413FF4D5AFED
:102D00000B0C06BF09044FF0100C4FF0000C0B0E1B
:102D100004BF09020CF1080C0B0F04BF09010CF1F0
:102D2000040C8B0F04BF89000CF1020CCB0F04BF05
:102D300049000CF1010CCCF12003A0EB0C0022FAAD
:102D400003F302FA0CF241EA030100F101007047BB
:102D500020F07F4C80EA030023F07F47ACEB0703B1
:102D600003F57C5300F0004003F1FF032DE9804997
:102D70004FEA154B09B44FEA144325EA0B4E24EAF7
:102D800003480FF2042606EB132749083E785FEA52
:102D9000320203FB0667C7F5000707FB06F64FEA9A
:102DA00054374FEAD64606F1020607FB066CCCF113
:102DB000005C4FEA1C472CEA074C07FB06F40CFBAF
:102DC00006F504EB15464FEA961634BF00204FF087
:102DD00000404FEAD13706FB07FC4FEA1C4C0CFBC6
:102DE0000BF7D21B03FB0CF761EB07010CFB0EF793
:102DF000B0EB074072EB17420CFB08F734BFA2EBB5
:102E00000742B2EB074261EB17414FEA0C444FEA2D
:102E1000910706FB07FC4FEA1C4C0CFB0BF7B0EBD1
:102E2000C74072EB573203FB0CF734BFA2EBC7422B
:102E3000B2EBC74261EB57310CFB0EF7B0EBC700AA
:102E400072EB57720CFB08F734BFA2EBC702B2EB70
:102E5000C70261EB5771039F4FEA816141EA92110A
:102E600004EBCC044FEAD1374FEA826206FB07FC41
:102E700042EA90124FEA80604FEA1C4C0CFB0BF7C1
:102E8000D21B03FB0CF761EB07010CFB0EF7B0EB59
:102E9000074072EB17420CFB08F734BFA2EB074266
:102EA000B2EB074261EB17414FEA8C554FEA9107AD
:102EB00004EB9C2406FB07FC4FEA1C4C0CFB0BF7B5
:102EC000B0EBC74072EB573203FB0CF734BFA2EBF9
:102ED000C742B2EBC74261EB57310CFB0EF7B0EBC8
:102EE000C70072EB57720CFB08F734BFA2EBC702A6
:102EF000B2EBC70261EB577115EB4C254FEA8161CC
:102F000041EA92114FEA82624FEAD13742EA9012C7
:102F100006FB07FC44F100044FEA80604FEA1C4CBA
:102F20000CFB0BF7D21B03FB0CF761EB07010CFB4F
:102F30000EF7B0EB074072EB17420CFB08F734BFFB
:102F4000A2EB0742B2EB074261EB174115EB1C15F0
:102F50004FEA813141EA92414FEA823242EA90429D
:102F60004FEA80304FEA0C7644F1000448EA03430C
:102F70004EEA0B484FF0000EB2EB080C71EB030762
:102F800024BF624639464EEB0E0E4FF0000B001880
:102F9000524149414BEB0B0BB2EB080C71EB0307B1
:102FA0007BF1000B24BF624639464EEB0E0E4FF00C
:102FB000000B0018524149414BEB0B0BB2EB080CD4
:102FC00071EB03077BF1000B24BF624639464EEBE1
:102FD0000E0E51EA020718BF46F0010616EB0E76F8
:102FE00055F1000254F1000103D5BDE88901BDE8A7
:102FF0000088BDE88901BDE80048B619524141EB9F
:103000000101A3F10103704780807F7E7D7C7B7A84
:103010007978777676757473727171706F6E6E6D84
:103020006C6C6B6A6A69686867666665646463632A
:1030300062616160605F5F5E5E5D5D5C5C5B5B5AB0
:103040005A5959585857575656555555545453531D
:1030500052525251515050504F4F4F4E4E4D4D4D78
:103060004C4C4C4B4B4B4A4A4A49494948484847C3
:103070004747474646464545454444444443434301
:10308000434242424241414146EA0646A3F570535B
:103090004FEA164646EA42564FEAD22242EA4152E7
:1030A00010B54FEAD121A3F1010300F02FF820F071
:1030B000004000F1020C00F0004701EB0050114607
:1030C000BCF5006F40EA070000D210BDBAF1000F56
:1030D0000AD01CB503B44FF004004FF004014FF0C8
:1030E00000000FBCBDE810404FF00001BBF1010F24
:1030F000B9BF04484FF0FF310348002140EA070000
:1031000010BD00BFFFFFEF7F0000F07F002B9C464B
:1031100030D477002BD01CB54FEA370703B44FF0FB
:1031200010004FF01001BAF1000F06D0BCF1000FF3
:10313000DCBF40F0080040F008014FF000000FBC79
:10314000BDE810400BF1010BBBF1010F08BF5FEAB6
:10315000170722BF12F1010211F101014FF00041E6
:1031600043F1000300F0004043EA00007047F9D348
:103170005708D0E746EA064613F1400F4FEA1646D5
:103180001FDD13F1200FDFBF16430A460021203355
:103190005B42BED0C3F1200746EA064602FA07F7B3
:1031A0004FEA164646EA0706C3F1200722FA03F261
:1031B00001FA07F721FA03F14FF0000342EA070290
:1031C000A7E746EA020646EA06464FEA164646EAF8
:1031D0000106BCBF46EA0646360C4FF000034FF02E
:1031E00000024FF0000194E72DE9804C9A46934687
:1031F00070B491E8380007C831EA400C48BF34EA9F
:10320000430C03D5FFF7A4FDFFF780FFF0BCBDE83A
:10321000008C2DE9804C9A46934670B491E83800B2
:1032200007C831EA400C48BF34EA430C03D5FFF726
:103230008FFDFFF729FFF0BCBDE8008C2DE9804C25
:103240009A46934670B491E8380007C810F0804F52
:1032500008BF13F0804F03D100F01AF8FFF756FFB4
:10326000F0BCBDE8008C2DE9804C9A46934670B4C2
:1032700091E8380007C810F0804F08BF13F0804F66
:1032800003D100F005F8FFF7FFFEF0BCBDE8008CAD
:1032900020F07F4780EA030023F07F4C07EB0C030C
:1032A000A3F57C5300F00040A3F1FE0392F0000F61
:1032B00000F0B38095F0000F00F077802DE9014910
:1032C0004FEA11404FEA144621EA004800FB06FC91
:1032D00024EA064708FB06F607FB08F800FB07F799
:1032E00018EB06484CEB164C4FEA124B18EB07480C
:1032F0004FEA15464CEB174022EA0B4E0BFB06FC3F
:1033000025EA06470EFB06F607FB0EFE0BFB07F74A
:103310001EEB064E4CEB164C4FF000061EEB074E14
:103320004CEB174B18EB0B0840F1000018EB0E0BA1
:1033300058EB000840F100008F1A4FF000013CBF2D
:10334000C943661B14BFB5EB040C00213CBFC94345
:10335000F61B4FEA17444EEA8E0E27EA04454FEA61
:103360001C4704FB07622CEA074C05FB07F70CFB24
:1033700005F604FB0CFC16EB074642EB174216EB76
:103380000C4642EB1C421BEB060658EB0202414185
:1033900046EA9E0601D5BDE80189B619524141EBC6
:1033A0000101A3F10103BDE801894FEA14454FEA89
:1033B000114724EA054621EA074C05FB07F406FB02
:1033C00007F70CFB06F105FB0CFC11EB074144EB86
:1033D00017444FEA124711EB0C4144EB1C4422EA1C
:1033E000074C05FB07F206FB07F70CFB06F605FB8F
:1033F0000CFC16EB074642EB174216EB0C4642EB71
:103400001C456A1854F1000148BF7047B619524173
:1034100041EB0101A3F10103704795F0000F37D094
:103420004FEA11424FEA144721EA024624EA074CC8
:1034300002FB07F106FB07F70CFB06F402FB0CFC92
:1034400014EB074441EB17414FEA154714EB0C44CA
:1034500041EB1C4125EA074C02FB07F506FB07F789
:103460000CFB06F602FB0CFC16EB074645EB17457A
:1034700016EB0C4645EB1C42121951F1000148BFF6
:103480007047B619524141EB0101A3F101037047A6
:103490004FEA14454FEA114724EA054621EA074C52
:1034A00005FB07F106FB07F70CFB06F24FF00006E1
:1034B00005FB0CFC12EB074241EB174112EB0C42EF
:1034C00051EB1C4148BF7047921841EB0101A3F139
:1034D000010370471CB50121102003F0DDFC04201E
:1034E000009001208DF8040000208DF806008DF872
:1034F000070003208DF8050069460E4800F0A3FF81
:103500001020009001208DF8040000208DF80600A6
:103510008DF8070003208DF805006946054800F086
:1035200092FF0421034801F00DF81021014801F039
:1035300009F81CBD0010024010B5FFF7CBFF0021B9
:10354000462000F00CF80721462000F008F8102172
:10355000462000F004F8B4200CF09AFB10BD70B5C2
:1035600004460D4608F0B6FCE0B208F083FC00BF4C
:1035700008F0E8FC0028FBD1284608F07BFC00BFDF
:1035800008F0E0FC0028FBD108F0C0FC70BD00BFD3
:10359000FEE7F8B505460E464FF6FF7448F2050003
:1035A00000906946684601F015FA10E015F8010B25
:1035B0004440002009E004F0010121B1BDF80010F1
:1035C00081EA640400E06410401C0828F3DB301E2C
:1035D000A6F10106EAD12046F8BD00F40002B2F5DA
:1035E000000F06D1C0F31600C143C1F31600401C02
:1035F00001E0C0F31600704721B1026842F00102F9
:10360000026003E0026822F00102026070470000DD
:103610002DE9F0438FB004460D4616461F46DDE9FE
:1036200016891D48844204D90121880503F034FC21
:1036300003E00121480503F02FFC204600F02EF89E
:1036400000BF204600F0ECF80028FAD10095019662
:103650000297CDF80C80CDF8109005904FF4806063
:1036600006900020079008904FF480700990400267
:103670000A9000200B9003200C9000200D900E90DB
:103680006946204600F0DAF801212046FFF7B4FF32
:103690000FB0BDE8F083000000640240016821F033
:1036A000010101600021016041608160C160016130
:1036B000212141614A49884204D13D21484A103ABA
:1036C00091608CE046491831884205D14FF474610D
:1036D000434A103A916082E041493031884205D135
:1036E0004FF474113E4A103A916078E03C494831F9
:1036F000884205D14FF07461394A103A91606EE00A
:1037000037496031884204D13649354A103AD16090
:1037100065E033497831884204D13349304A103A60
:10372000D1605CE02E499031884204D12F492C4A67
:10373000103AD16053E02A49A831884205D14FF0B0
:103740003D51274A103AD16049E02949884204D1C5
:103750003D21274A083A116041E025491831884245
:1037600005D14FF47461224A083A116037E02049CC
:103770003031884205D14FF474111D4A083A116066
:103780002DE01B494831884205D14FF07461184A39
:10379000083A116023E016496031884204D111498A
:1037A000134A121F11601AE011497831884204D17E
:1037B0000D490F4A121F116011E00D4990318842E6
:1037C00004D10A490A4A121F116008E00849A831C9
:1037D000884204D14FF03D51054A121F11607047D5
:1037E000106002403D000020400F002000003D20FE
:1037F0001064024070B504460D4600212046FFF7D4
:10380000FBFE00BF204600F00BF80028FAD1294645
:10381000204600F03FF801212046FFF7EDFE70BD85
:10382000014600200A6802F001020AB1012000E00E
:10383000002070470146486880B2704710B50022EA
:103840000268134B1A40CC680B6823434C6923432E
:103850008C692343CC6923430C6A23434C6A23437A
:103860008C6A23434C6B23438C6B23431A430260C3
:10387000426922F00702D1E90B3423431A43426123
:103880000B6943604B6883608B68C36010BD0000A8
:103890003F801CF041607047704708B53D208DF8AF
:1038A000000000208DF801008DF8020001208DF845
:1038B0000300684601F04EFD08BD00000149486163
:1038C000704700000090024029B1064AD2690243C5
:1038D000044BDA6104E0034AD2698243014BDA61A6
:1038E000704700000090024030B10749896941F0FB
:1038F0000201054A916105E00349896921F002014D
:10390000014A9161704700000090024070B50C467A
:1039100013460021124D286000BF18E000EB411251
:103920004FF00045156044F2F4555560C1EBC115E8
:1039300005EB450504EB850595605D1E8D4204D9B8
:1039400000EB41152035D56000E0D060491C99425C
:10395000E4D3044DE860044D044E356070BD0000B2
:103960000801002000900240A82700200C01002040
:1039700030B10749896941F40051054A916105E078
:103980000349896921F40051014A9161704700009F
:103990000090024030B50C46134600210F4D2860C0
:1039A00000BF15E000EB41124FF480151560C1EB2C
:1039B000C11505EB450504EB850595605D1E8D423F
:1039C00004D900EB41152035D56000E0D060491CDA
:1039D0009942E7D3024D286130BD00000401002068
:1039E0000090024002680A430260704710B501214E
:1039F000480603F061FA00214FF0007003F05CFA12
:103A000010BD01B581B0002000900198009002E047
:103A10000098401E009000980028F9D10CBD0000CD
:103A20000348806940F480100149886170470000B4
:103A3000009002400148006880687047040100203F
:103A400001460868C0F30D40704700B502460023E8
:103A5000106800F0004058B9106800F4004038B910
:103A6000106800F4807018B11046FFF7E9FF0346B4
:103A7000184600BD00200449096801F0010109B1A0
:103A8000012000E0002070470090024010B501E0E6
:103A900019F0AAF806480068FFF7D7FF0028F7D109
:103AA0004020FFF70BFF4FF48030FFF707FF10BDFA
:103AB000080100202DE9F04186B004460F464FF082
:103AC0000008002500200590954E00909548056956
:103AD00025F01C0501A803F03FFA029E9248864299
:103AE00005D39248864202D245F008051AE08F4875
:103AF000864205D38A48864202D245F00C0511E081
:103B00008748864203D38A48864200D20AE0884822
:103B1000864205D38748864202D245F0040501E07B
:103B200045F010057F4805614FF4004200213846FA
:103B300000F014FB18B9002006B0BDE8F0817E4803
:103B4000FFF75FFF206800284ED000BF0098401CA0
:103B500000900121384600F0D5F900F0040018B9B2
:103B6000764900988842F1D374490098884201D17F
:103B70000020E1E7002000904FF4805200213846F9
:103B800000F0ECFA08B90020D6E700BF0098401C0E
:103B900000900121384600F0B5F900F0200018B976
:103BA000664900988842F1D364490098884201D15F
:103BB0000020C1E7002000901F21384600F0A2F944
:103BC000804608F0100018B14FF40060206201E058
:103BD0000020206208F0040010B10020606116E0AF
:103BE0004FF48040606112E0206AC0F3CF00616949
:103BF000C1F34F0140EA01020021384600F0AEFA5D
:103C000008B9002098E76FF07F40FFF7FAFE4548BB
:103C100005684B480540D4E901010843E1680843C1
:103C20002169084361690843A1690843E1690843C0
:103C3000216A0843616A0843A16A0843E16A0843AC
:103C4000216B0843616B0843054336480560D4E99E
:103C50000E010843216C0843616C0843A16C0843C2
:103C6000E16C0843216D0843616D08432D494860AC
:103C7000A06D8860E06DC860084685694FF64170A8
:103C80000540B4F86010606E40EA0140A16E084340
:103C9000E16E0843216F0843616F084305432148E3
:103CA0008561D4E91E0108431E49C861254885691C
:103CB00025480540D4E920010843D4F8881008437A
:103CC000D4F88C100843D4F890100843D4F894101A
:103CD0000843D4F898100843D4F89C100843D4F84B
:103CE000A0100843054317488561D4E9290108431A
:103CF000D4F8AC100843D4F8B0100843D4F8B4108A
:103D000040EA8100D4F8B810084340F400000D499F
:103D100008600846006840F08000086001200BE75A
:103D20000087930300800240002D3101C00E16026F
:103D300000E1F50580D1F008FFFF0F00FFFF040050
:103D40000F8120FF00900240233FDEF810B50B7971
:103D50004C7943EA0422094B03441A64CB781B06CE
:103D60008C7843EA04434C7843EA04230C7843EA12
:103D70000402024B03445A6410BD0000008002405C
:103D800010B5B0B001A800F05BF90120019000204F
:103D900008904FF400700B9000200C900F90129040
:103DA000149010201590002016904FF480600A9017
:103DB000002021904FF000702290001124900020EC
:103DC0002690279004202990C0052A9040122B901D
:103DD00080012C9040122D9040002F90002101A8CE
:103DE000FFF768FEC4B2012C03D101210248FFF79E
:103DF0006BFD204630B010BD4000010030B10749D6
:103E0000096841F00401054A116005E003490968A9
:103E100021F00401014A1160704700000080024057
:103E200030B10749096841F00801054A116005E011
:103E30000349096821F00801014A11607047000038
:103E40000080024010B50F480168002019F0E4FE20
:103E50000D480168002019F0DFFE0C4801680020C1
:103E600019F0DAFE0A480168002019F0D5FE00209A
:103E7000044908600449086004490860044908606E
:103E800010BD0000580000205C00002060000020F1
:103E90006400002010B5FFF7D5FFA021002019F025
:103EA000D5FE14490860A021002019F0CFFE124968
:103EB000086041F6C451002019F0C8FE0F4908609F
:103EC00041F6C451002019F0C1FE0D4908600948AF
:103ED000006840B10848006828B10848006810B17F
:103EE0000846006818B9FFF7ADFF012010BD00209B
:103EF000FCE70000580000205C000020600000206B
:103F00006400002018B502460B46002100200090F6
:103F10001548016901F01C014FF4784000EAC22005
:103F200001434FF4F86000EA8310014321F00201DD
:103F300041F001010C48016100BF0098401C009055
:103F40000948016901F0010018B1084C0098A0422D
:103F5000F3D3064C0098A04201D1002018BD0248BE
:103F6000406980B2FAE7000000800240FFFF0400D1
:103F70001EB500210022009201920292214A12688D
:103F8000126802F0004282B1002200921E4A526979
:103F900002F0800222B180221B4B5A6100229A60FB
:103FA0009DE81C0080E81C001EBD164A12681268BD
:103FB00002F40042B2B9134A1268126802F4807225
:103FC00082B1104A1268126802F4007252B10D4AAE
:103FD00012681268C2F30D42111F0A4A12689268F1
:103FE000019200E000210091064A12680292054AFF
:103FF0001268D268034B1A609DE81C0080E81C0020
:1040000000BFD1E70801002000900240034800688B
:1040100040F0010001490860704700000090024034
:1040200000B50120FFF7FCFEFFF7FAFC0120FFF7C7
:10403000E5FE0120FFF79CFC0120FFF755FC00BDC9
:1040400001210160002141608160C16001614FF484
:104050008041416100218161C1614FF400610162D1
:10406000002141628162C162016341638163C16376
:10407000402101642021416400218164C164016503
:1040800041658165C16501668021416600218166C7
:10409000C166016741678167C1674FF08061C0F801
:1040A00080104910C0F884100021C0F888104FF427
:1040B0000011C0F88C100021C0F89010C0F89410C6
:1040C000C0F89810C0F89C10C0F8A0104FF0007114
:1040D000C0F8A4104912C0F8A8108901C0F8AC10AB
:1040E0004912C0F8B0100021C0F8B410C0F8B810E0
:1040F00070470000014617480068006800F0004063
:1041000008B100207047C1F30C00124A12685060D9
:1041100010480068006840F040500E4A1268106075
:104120000C480068006840F000400A4A12681060BD
:104130000948406900F0040020B10420064A50619B
:104140000020506003480068C068024A10600120E7
:10415000D8E70000040100200090024038B5034673
:104160000C460021002000901448016901F01C0158
:104170004FF4784000EAC32001434FF4F86000EAAE
:104180008410014341F0020141F001010B484261FA
:10419000016100BF0098401C00900848016901F0CF
:1041A000010018B1064D0098A842F3D3044D0098C1
:1041B000A84201D1002038BD0120FCE70080024068
:1041C000FFFF04000149086070470000143C0140F3
:1041D000002123498279002A3AD00A4612680368EE
:1041E0009A430B461A600A1D126803689A430B1D16
:1041F0001A60027911440A6803681A430A60184A6F
:104200000832126803689A43154B08331A601A1D66
:10421000126803689A43124B0C331A604279102AD1
:104220000ED11A1F126803681A430D4B08331A6027
:104230001A1D126803681A43094B0C331A600DE00B
:104240000749427911440A6803681A430A6005E085
:10425000027911440A6803689A430A6070470000B3
:10426000003C014001490860704700000C3C0240DE
:1042700030B10749096841F48061054A116005E0E1
:104280000349096821F48061014A11607047000008
:10429000003C024070B504460A460026092502B9D2
:1042A00009E0012A01D1160205E0022A01D1160215
:1042B00001E04FF4407600F09FF80546092D28D123
:1042C0001548006820F440701349086008460068EB
:1042D000304308600846006820F0F800086008468F
:1042E000006844F0020108430B4908600846006872
:1042F00040F48030086000F07FF80546064800680A
:1043000020F00200044908600846006820F0F80028
:104310000860284670BD0000103C02400920134987
:10432000096801F48031B1F5803F01D101201CE022
:104330000E49096801F0100109B1062015E00B498A
:10434000096801F4807109B102200EE0074909688B
:1043500001F0EF0109B1072007E00449096801F005
:10436000020109B1082000E0092070470C3C02401E
:104370000348006840F000400149086070470000B1
:10438000103C024030B502460C46092500F034F8D6
:104390000546092D19D10E48006820F440700C49DB
:1043A00008600846006840F400700860084600682D
:1043B00040F001000860146000F01EF80546044853
:1043C000006820F0010002490860284630BD000066
:1043D000103C02400548006800F0004028B1044845
:1043E00002490C390860034808607047103C0240DD
:1043F00023016745AB89EFCD08B509200090FFF791
:104400008DFF009002E0FFF789FF00909DF800000B
:104410000128F8D09DF8000008BD2DE9F0410746BD
:104420000D461646002409E055F824103846FCF7DE
:1044300015FF10B92046BDE8F081641CB442F3DBDF
:104440004FF0FF30F7E7F0B50A46002100230024C3
:1044500000BF3DE0012505FA01F3156805EA0304F4
:104460009C4234D105684F000326BE40B543056029
:1044700015794E00B5400668354305601579012D64
:1044800002D01579022D16D185684F000326BE4053
:10449000B543856055794E00B540866835438560E3
:1044A000456801268E40B5434560456896798E4043
:1044B000B6B235434560C5684F000326BE40B543DC
:1044C000C560D5794E00B540C6683543C560491C06
:1044D0001029BFD3F0BDF0B5002300244D07ED0E29
:1044E00002FA05F3CE1000F1200555F826504E07CC
:1044F000F70E0F26BE40B543CF1000F1200646F858
:104500002750CE1000F1200555F8265045EA030447
:10451000CE1000F1200545F82640F0BD02460020EF
:1045200013690B400BB1012000E0002070470246E8
:10453000002053690B400BB1012000E000207047C0
:1045400041837047018370470AB1018300E04183D2
:10455000704700002DE9F0410546002425E004EBFA
:104560004400154911F82000298888421CD104EB29
:104570004403114F07EB8303198904EB440307EB52
:10458000830358680D4B1A689047064604EB4400B5
:10459000394601EB8000807AB04201D1012600E06B
:1045A00000263046BDE8F081641C0548007884424E
:1045B000D5DB0020F6E70000800300206803002020
:1045C0002FDD03082DE9F04107460D4616464FF052
:1045D000010800F069F91C49087800F03BF900F087
:1045E000A1F910B14FF0000828E0384600F032F988
:1045F00000F098F910B14FF000081FE000F054F9F6
:1046000011490978491CC8B200F024F900F08AF970
:1046100010B14FF0000811E000240CE0701EA04221
:1046200004D1002000F0E6F8285503E0012000F056
:10463000E1F82855641CB442F0D300BF00F054F9EF
:104640004046BDE8F08100002A0100202DE9F0413C
:1046500007460D4616464FF00108002400F024F9E5
:104660001549087800F0F6F800F05CF908B1A046AA
:1046700017E0384600F0EEF800F054F910B14FF0B2
:1046800000080EE0002409E0285D00F0E3F800F0E7
:1046900049F910B14FF0000803E0641CB442F3D3B1
:1046A00000BF00F021F9B8F1000F02D00120BDE8F1
:1046B000F0810020FBE700002A01002000B5002364
:1046C000002200BF19E001200E4908600F2010F001
:1046D00019FC00200C49C1F8A8025006020E094836
:1046E0007C38006810B142F0010201E022F00102C2
:1046F0000F2010F007FC581CC3B2082BE3DB104658
:1047000000BD0000A80241420000414200B502463F
:10471000002300BF1BE000201049086002F0800069
:1047200020B101200D490831086003E000200B4949
:10473000083108605006020E0F2010F0E3FB012044
:10474000064908600F2010F0DDFB581CC3B2082B8F
:10475000E1DB00200149086000BD0000A8024142E1
:1047600030B504460D4603E02078FFF7CFFF641C08
:10477000281EA5F101018DB2F6D130BD10B5002083
:104780000A49086014F036FA00200949C1F8840289
:1047900002200BF0B3FA01200449086002200BF05C
:1047A000ADFA00200349C1F89C0210BD9C024242B0
:1047B000008040420000424210B500200A490860D3
:1047C00014F018FA01200949C1F8840202200BF004
:1047D00095FA01200449086002200BF08FFA0020AE
:1047E0000349C1F89C0210BD9C0242420080404235
:1047F0000000424270B50546002414F0EFF900268F
:104800001AE000201149086001200BF077FA6006D9
:10481000040E0F48D0F8040208B1601CC4B2012095
:104820000BF06CFA0120094908600BF067FA0120CF
:104830000BF064FA701CC6B2082EE2DB15B9FFF764
:10484000BBFF01E0FFF79AFF204670BD9C02424289
:104850000080404270B5044614F0CCF900200F49A6
:104860000860002516E0E0090D4908606006040EA6
:1048700002200BF043FA01200A49C1F89C020220F1
:104880000BF03CFA00200549086002200BF036FAD4
:10489000681CC5B2082DE6DB70BD00009C024242D8
:1048A000848240420000424210B514F0A3F9012076
:1048B0000B49086002200BF021FA01200949C1F8D8
:1048C0009C0204200BF01AFA00200549086004201D
:1048D0000BF014FA00200349C1F89C0210BD00003F
:1048E000848240420000424210B514F083F9002057
:1048F0000A49086002200BF001FA00200849C1F8BB
:10490000840204200BF0FAF90120044908600449EC
:10491000C1F8840204200BF0F1F910BD9C02424260
:104920000080404210B5002414F058F901200E49CF
:1049300008600BF0E3F901200C49C1F89C020BF070
:10494000DDF907E0601CC4B2FA2C03DDFFF7CCFFF1
:10495000012010BD0448803800680028F2D10449C5
:10496000086000BFF5E70000848240420000424238
:104970009C0242422DE9F04107460C4615469846F6
:104980000026224629460CA0FFF747FD0746781C63
:1049900078B100BF0BE055F8260007A1FCF75EFCDC
:1049A00018B9002108461CF0D5FD701CC6B2A642FD
:1049B000F1DB03A0BDE8F0816C6F67696E00000059
:1049C0002F70617273652E7368746D6C0000000047
:1049D000704770473CB502460023009301930020C6
:1049E0000FE00B880124844023404BB1BDF8003018
:1049F000C0F10F050124AC4023439BB2ADF8003059
:104A0000401C1028EDDBBDF8003013803CBD10B514
:104A100001210020FFF776FA00F0040010BD00002D
:104A20001CB5002401210F2002F036FA0121880371
:104A300002F072FA012003F09FF986200090032013
:104A40008DF8050002208DF8040000208DF8060086
:104A50008DF8070069464048FFF7F5FC0B2201215D
:104A60003D48FFF738FD0B2202213B48FFF733FD9D
:104A70000B2207213848FFF72EFD322000906946AF
:104A80003648FFF7E0FC0B2201213448FFF723FDF5
:104A90000B2204213148FFF71EFD0B2205212F4870
:104AA000FFF719FD4FF46050009069462C48FFF75E
:104AB000CAFC0B2211462A48FFF70DFD0B220C21E0
:104AC0002748FFF708FD0B220D212548FFF703FDBE
:104AD0004020009003208DF8050001208DF804008F
:104AE00000208DF806008DF8070069461A48FFF788
:104AF000AAFC0120009003208DF8050001208DF80C
:104B0000040000208DF806008DF80700694614485F
:104B1000FFF799FC0020134908601349C1F8980277
:104B200032200BF0B5F8012010490860FEF7B5FE01
:104B300001214FF0606002F0AFF9FEF757FFFFF779
:104B400065FA00BFFEF796FF0128FBD001240CB9DF
:104B500001201CBD0020FCE70000024000080240CC
:104B600000040240808240420000404298024042DD
:104B700038B50446042C2AD169462E2000F06CF981
:104B800008B9002038BD9DF8000000F01F0000901B
:104B90009DF8000000909DF800102E2000F092FB80
:104BA00008B90020EEE76946242000F055F908B95D
:104BB0000020E7E79DF8000000F0BF0000909DF89E
:104BC0000010242000F07EFB08B90020DAE794BB37
:104BD0006946242000F040F908B90020D2E79DF88A
:104BE000000000F0BF0000909DF8000040F0400081
:104BF00000909DF80010242000F064FB08B900200C
:104C0000C0E769462E2000F027F908B90020B9E76F
:104C10009DF8000000F01F0000909DF8000040EAA1
:104C20008410C0B200909DF800102E2000F04AFBC6
:104C300008B90020A6E7FFE7012C32D169462420FD
:104C400000F00AF908B900209CE79DF8000000F088
:104C5000BF0000909DF8000040F0400000909DF8DB
:104C60000010242000F02EFB08B900208AE76946D6
:104C70002E2000F0F1F808B9002083E79DF800002D
:104C800000F01F0000909DF8000040EA8410C0B2C0
:104C900000909DF800102E2000F014FB08B90020B1
:104CA00070E7022C32D16946242000F0D5F808B90B
:104CB000002067E79DF8000000F0BF0000909DF81D
:104CC000000040F0400000909DF80010242000F00B
:104CD000F9FA08B9002055E769462E2000F0BCF823
:104CE00008B900204EE79DF8000000F01F0000907A
:104CF0009DF8000040EA8410C0B200909DF80010BA
:104D00002E2000F0DFFA08B900203BE7032C32D157
:104D10006946242000F0A0F808B9002032E79DF889
:104D2000000000F0BF0000909DF8000040F040003F
:104D300000909DF80010242000F0C4FA08B900206B
:104D400020E769462E2000F087F808B9002019E70F
:104D50009DF8000000F01F0000909DF8000040EA60
:104D60008410C0B200909DF800102E2000F0AAFA26
:104D700008B9002006E7012004E7F8B504466D46AF
:104D80006E1C2946282000F067F808B90020F8BDFD
:104D90003146292000F060F808B90020F7E7BDF996
:104DA0000000208029462A2000F056F808B900208B
:104DB000EDE731462B2000F04FF808B90020E6E778
:104DC000BDF90000608029462C2000F045F808B9A4
:104DD0000020DCE731462D2000F03EF808B9002025
:104DE000D5E7BDF90000A0800120D0E71CB5012166
:104DF000122002F091F88020009001208DF804002C
:104E00008DF8070003208DF8050000208DF80600BE
:104E100069460D48FFF717FB0220009001208DF82E
:104E200004008DF8070003208DF8050000208DF8A0
:104E3000060069460548FFF706FB012004490860A3
:104E40000449C1F89C021CBD00100240000402404D
:104E5000848240420000424270B504460D46084834
:104E6000007830B1012229462046FFF7ABFB012034
:104E700070BD01222946204610F010F80120F7E706
:104E80002801002008B569462420FFF7E5FF08B98E
:104E9000002008BD9DF8000000F07F0000909DF804
:104EA000000040F0800000909DF80010242000F0E9
:104EB00009FA08B90020ECE70021202000F002FAEE
:104EC0000021212000F0FEF90021222000F0FAF953
:104ED0000021232000F0F6F90021242000F0F2F94F
:104EE0000021252000F0EEF90420FFF741FE01200B
:104EF000CFE700001CB50121102001F0CDFF2020DC
:104F0000009001208DF8040000208DF806008DF837
:104F1000070003208DF8050069461048FFF793FA53
:104F20001020009001208DF8040000208DF806006C
:104F30008DF8070003208DF8050069460748FFF744
:104F400082FA0820009000208DF8040001208DF8DE
:104F5000070069460148FFF776FA1CBD00100240C1
:104F600010B50146002000221FE00023124C2360F0
:104F700001F080031BB10123241F236003E0002301
:104F80000D4C241F23604B06190E01230A4C23608D
:104F90004306180E094BD3F80C3213B140F0010050
:104FA00001E020F00100531CDAB2082ADDDB002307
:104FB000014C236010BD00009402424200004242B6
:104FC00038B5044669462020FFF746FF08B900209F
:104FD00038BD9DF8000000F0F800009004F00700D4
:104FE0009DF80010084300909DF80010202000F06C
:104FF00069F908B90020EBE70120E9E738B5044674
:1050000069462320FFF728FF08B9002038BD9DF826
:10501000000000F07F0000909DF8000040EAC410FE
:10502000C0B200909DF80010232000F04BF908B9A1
:105030000020EBE70120E9E738B50446694638204F
:10504000FFF70AFF08B9002038BD9DF8000000F006
:10505000C00000909DF80000204300909DF80010D3
:10506000382000F02FF908B90020EDE70120EBE728
:1050700010B5044621463C2000F024F908B9002070
:1050800010BD0120FCE710B504467F2C01DD002097
:1050900010BD21463B2000F015F908B90020F7E7C4
:1050A0000120F5E710B504467F2C01DD002010BD7E
:1050B00021463A2000F006F908B90020F7E7012060
:1050C000F5E710B5044621463D2000F0FBF808B98D
:1050D000002010BD0120FCE738B5044669462320B6
:1050E000FFF7BAFE08B9002038BD9DF8000000F0B7
:1050F000CF0000909DF8000040EA0410C0B200907C
:105100009DF80010232000F0DDF808B90020EBE73F
:105110000120E9E738B5044669462120FFF79CFEE7
:1051200008B9002038BD9DF8000000F03F00009055
:105130009DF8000040EA8410C0B200909DF8001075
:10514000212000F0BFF808B90020EBE70120E9E7D3
:1051500038B5044669462220FFF77EFE08B90020D4
:1051600038BD002000909DF80000204300909DF87D
:105170000010222000F0A6F808B90020F0E7012076
:10518000EEE738B5044669462520FFF765FE08B905
:10519000002038BD002000909DF8000020430090C2
:1051A0009DF80010252000F08DF808B90020F0E7E8
:1051B0000120EEE71CB5044601A92020FFF74CFEB4
:1051C00008B900201CBD69462320FFF745FE08B939
:1051D0000020F7E79DF8040000F0F00038B92948F6
:1051E000007800F0F0009DF804100843019024B10D
:1051F000012C1FD0022C30D109E09DF80400214978
:1052000008709DF8040000F00F00019027E09DF861
:10521000040000F0F70001909DF8040001909DF853
:10522000000000F0F70000909DF8000040F008003A
:10523000009014E09DF8040000F0F70001909DF844
:10524000040040F0080001909DF8000000F0F70015
:1052500000909DF80000009001E00020B2E700BF40
:105260009DF80410202000F02DF808B90020A9E7CF
:105270009DF80010232000F025F808B90020A1E7D0
:1052800001209FE72901002038B504466946202007
:10529000FFF7E2FD08B9002038BD9DF8000000F0DE
:1052A0000F0000909DF8000040EA0410C0B200908A
:1052B0009DF80010202000F005F808B90020EBE769
:1052C0000120E9E713B504460848007830B101220F
:1052D00001A92046FFF7BAF901201CBD012201A94E
:1052E00020460FF0F5FD0120F7E70000280100201F
:1052F00000BFFEE730B52DED028B83B004460D46AE
:10530000002001900290BCEEC80A8DED010A9DEDCF
:10531000010AB8EE400A38EE400AB0EE408A9FED2E
:10532000090A28EE000ABCEEC00A8DED020A06A1A9
:105330002046DDE90123FBF787F903B0BDEC028BC2
:1053400030BD00000000C84225642E2530326400C4
:105350007047000070B5002100230F22C4781CB3F1
:10536000174C246804F4E064C4F5E064C4F3072136
:10537000C1F10404E3B20A4144789C40E1B284786C
:10538000144021430C07210E0E4C0578615504781A
:1053900004F01F050124AC4005786D11AD0005F146
:1053A000E025C5F8004109E0047804F01F05012458
:1053B000AC40054D0678761145F8264070BD0000DA
:1053C0000CED00E000E400E080E100E00249014370
:1053D000024A1160704700000000FA050CED00E081
:1053E0002DE9F04105460E46144600271148007885
:1053F00018B112202070BDE8F0812878012808D06B
:10540000022807D0032802D0042804D100E000BFFE
:1054100000BF00BF02E001202070ECE700BFFAF7F8
:10542000A1FF07466E613846FAF7A0FF0020207002
:1054300000BFE0E77900001010B500F017F801F0A8
:1054400071FA01F099FA01F0B9FA01F03BFA01F0B2
:10545000FBF901F04DFB01F077FB01F0EFFA01F0F1
:1054600015FB01F011F800F007F810BD002001490C
:1054700008807047C400001070470000064800789C
:10548000012808D105480078FF2804D20348007895
:10549000401C024908707047860000107900001017
:1054A00010B500241A480078012830D1FAF75AFFC5
:1054B00004461848007820B116480078401E154967
:1054C000087014480078F8B913480078E0B901F082
:1054D0009DFB12481249097850F8210011490860D3
:1054E0000F4800781049097888420DD00D480068AF
:1054F000806B401C0B49096888630C480068401C9D
:105500000A490860FAF74EFF2046FAF72FFF10BD50
:1055100086000010790000107A000010104C001076
:105520007C000010940000107B0000106000001050
:105530002DE9F04106460F464FF00008204800785C
:1055400010B10020BDE8F081FAF70CFF80461D483D
:105550000468006820B11B48006840681949086069
:105560004046FAF703FFFCB1FAF7FCFE8046164806
:105570000568D5B100680068134908604046FAF72D
:10558000F5FE6E6006EB8700A860EE602E61AF82CC
:105590000020E882022020700020208165600BA09E
:1055A0006061204601F042F908E00648006860604A
:1055B000044804604046FAF7D9FE00242046C1E7BB
:1055C0007900001064000010A40000103F000000EB
:1055D0002DE9F0470446894615464FF0000A207829
:1055E000022804D0012028702046BDE8F087354805
:1055F000007818B10F2028702046F6E7FAF7B2FEBF
:105600008246A07A10B14FF0010801E04FF0000887
:10561000B9F1000F03D0B9F1010F49D121E0B8F180
:10562000000F17D128A060616668284800683060C4
:105630002648066000202070254800686060002031
:105640002081234804605046FAF790FE002028701D
:10565000002705E05046FAF789FE492028702746C2
:105660002DE005E0002304221946204601F048F809
:10567000A07A0028F6D114A060616668134800681B
:105680003060124806600020207011480068606099
:10569000002020810E4804605046FAF767FEB8F1FA
:1056A000010F01D101F078FA00202870002706E0F0
:1056B0005046FAF75BFE07202870274600BF00BF60
:1056C000384692E7790000103F000000A400001067
:1056D000640000102DE9F0470746884615464FF054
:1056E00000093878022804D0012028700020BDE885
:1056F000F0873C48007818B1022028700020F6E7B7
:105700003948007818B10D2028700020EFE7FAF72B
:1057100029FE81467C68E08A98B12169081D2061D4
:105720000E68E08A401EE082A1682069884201D1AB
:10573000606820614846FAF719FE0020287030465C
:10574000D5E72A48006890F8300040F00400274967
:10575000096881F8300000202449096881F8310087
:1057600022480068C0F82C80384601F021F84846ED
:10577000FAF7FCFD01F010FAFAF7F4FD81461B4838
:10578000006890F8310020B101280DD002280AD11C
:1057900005E016480068066A002028700DE0002623
:1057A0000E20287009E000BF39461048006800F05C
:1057B000E9FF00260A20287000BF00BF00200B4927
:1057C000096881F830000949096881F83100074902
:1057D0000968C8610549096808624846FAF7C6FDC4
:1057E000304684E7790000107A0000108C00001029
:1057F0002DE9F04105460E4600272878022802D000
:105800000120BDE8F081FAF7ADFD0746A87A60B146
:10581000002304223146284600F072FF3846FAF78A
:10582000A5FD01F0B9F90020EBE76C68E08AA18AD8
:10583000884204DB3846FAF799FD1E20E1E7E1686B
:10584000081DE0600E60E08A401CE082D4E902108E
:10585000884201D16068E0603846FAF787FD002091
:10586000CFE72DE9F04705460C464FF0000A2878AF
:10587000022802D00120BDE8F087FAF773FD8246C6
:10588000A87A207405F10B0804F10809002705E047
:1058900018F8010B09F8010B781CC7B2082FF7D3D1
:1058A0006E68F08A18B130690068206001E000205D
:1058B0002060F08AA080B08AE0805046FAF756FD5A
:1058C0000020D8E710B500240B480078012811D13A
:1058D000FAF748FD04460948007840B908480078BE
:1058E000FF2804D206480078401C0549087020466D
:1058F000FAF73CFD10BD0000860000107900001092
:105900007A00001010B5002413480078012821D136
:10591000FAF728FD044611480078C0B10F48007816
:10592000401E0E4908700846007860B90C4800789F
:1059300028B92046FAF71AFD01F02EF90AE02046B0
:10594000FAF714FD06E02046FAF710FD02E02046C3
:10595000FAF70CFD10BD0000860000107A00001060
:105960007900001070B5054600261048007808B18F
:10597000002070BDFAF7F6FC06460D480468006882
:1059800020B10B4800684068094908603046FAF7C2
:10599000EDFC4CB10320207025810020606005A043
:1059A0006061204600F042FF2046E2E779000010E7
:1059B000640000103F0000002DE9F04704468846CF
:1059C00015464FF000092078032807D001202870E1
:1059D00033A0FAF72DFE2046BDE8F0873548007861
:1059E00030B10F20287034A0FAF722FE2046F3E7EA
:1059F000FAF7B8FC8146A07A08B1012700E0002739
:105A0000B8F1000F03D0B8F1010F3AD119E08FB906
:105A10002EA06061002020702D480068606000208A
:105A200020812B4804604846FAF7A0FC002028702B
:105A3000002605E04846FAF799FC492028702646DA
:105A400026E005E0002301221946204600F058FE1A
:105A5000A07A0028F6D11DA06061002020701C48AB
:105A60000068606000202081194804604846FAF709
:105A70007DFC012F01D101F08FF800202870002655
:105A800006E04846FAF772FC07202870264600BF59
:105A900000BF29460FA0FAF7CBFD30469CE7000077
:105AA0004F535F4552525F4556454E545F545950CF
:105AB000450D0A00790000104F535F4552525F4474
:105AC000454C5F4953520D0A000000003F000000A2
:105AD00064000010257300002DE9F04105460E46D4
