:020000040800F2
:10000000005D012041020008BD08000881080008C9
:10001000B9080008F90400087B110008000000007E
:10002000000000000000000000000000110D0008AA
:10003000FD040008000000004D090008290E00081A
:100040005B0200085B0200085B0200085B0200081C
:100050005B0200085B0200085B0200085B0200080C
:100060005B0200085B0200085B0200085B020008FC
:100070005B0200085B0200085B0200085B020008EC
:100080005B0200085B0200085B0200085B020008DC
:100090005B0200085B0200085B0200085B020008CC
:1000A0005B0200085B0200085B0200085B020008BC
:1000B0005B0200085B0200085B0200085B020008AC
:1000C0005B0200085B0200085B0200085B0200089C
:1000D0005B020008950E00085B0200085B02000846
:1000E0005B0200085B0200085B0200085B0200087C
:1000F0005B0200085B0200085B0200085B0200086C
:100100005B0200085B0200085B0200085B0200085B
:100110005B0200085B0200085B0200085B0200084B
:100120005B0200085B0200085B0200085B0200083B
:100130005B0200085B0200085B0200085B0200082B
:100140005B0200085B0200085B0200085B0200081B
:100150005B0200085B0200085B0200085B0200080B
:100160005B0200085B0200085B0200085B020008FB
:100170005B0200085B0200085B0200085B020008EB
:100180005B0200085B02000800F002F800F041F892
:100190000AA090E8000C82448344AAF10107DA45E2
:1001A00001D100F036F8AFF2090EBAE80F0013F0F3
:1001B000010F18BFFB1A43F001031847B81B0000DA
:1001C000D81B0000103A24BF78C878C1FAD852076B
:1001D00024BF30C830C144BF04680C6070470000C1
:1001E0000023002400250026103A28BF78C1FBD840
:1001F000520728BF30C148BF0B607047752900F017
:100200008180002070471FB501F0A8FD1FBD10B50B
:1002100010BD00F03FF91146FFF7F5FF01F06CFA51
:1002200000F05DF903B4FFF7F2FF03BC01F028F919
:1002300030BF72B6704762B6704780F30888704767
:100240000948804709480047FEE7FEE7FEE7FEE76A
:10025000FEE7FEE7FEE7FEE7FEE7FEE704480549A6
:10026000054A064B704700002D0E00088901000862
:1002700000570120005D0120005901200059012094
:10028000704700000FB4044910B503AA029800F0AB
:10029000D3F810BC5DF814FB080000202DE9F041F4
:1002A0000E460446002020622046E168884730B3AD
:1002B000252805D0D4E901219047206A401CF2E7A7
:1002C000E168204600278847050018D0A5F14100C5
:1002D000192802D820354FF40067324629462046B7
:1002E0002760FFF78BFF40B1012804D0F61D26F0F0
:1002F00007060836D8E7361DD6E72846DAE7206A2B
:10030000BDE8F0812DE9F04106460024106875290A
:10031000314616A510D0AFF30080002802DA404223
:1003200013A507E031688A0701D512A502E0490745
:1003300004D511A5012401E0AFF3008000210A22B9
:1003400006F1240709E0B0FBF2FCB0FBF2F302FB7C
:100350001C00303078541846491C0028F3D123463D
:100360002A463046BDE8F04100F00CB8000000001D
:100370002D0000002B000000200000007047704797
:10038000704770472DE9F0470D469946924604465E
:1003900000F124080168880604D5E06921F0100105
:1003A000216000E00120A84201DD471B00E000279A
:1003B000A1697A1902EB0900081AA0612078C00629
:1003C00002D42046AFF30080002608E0D4E90121E2
:1003D0001AF806009047206A401C761C20624E45A1
:1003E000F4DB2078C0060AD52046AFF3008006E093
:1003F000D4E9012130209047206A401C2062381E39
:10040000A7F10107F4DC07E0D4E9012118F80500A1
:100410009047206A401C2062281EA5F10105F3DCEC
:100420002046AFF300802078000602D50220BDE808
:10043000F0870120FBE70000074B70B50D467B44B9
:1004400000F011F80446284600F020F810B14FF0F3
:10045000FF3070BD204670BD0311000001694A1CC9
:1004600002610878704700B58FB0CDE901310021F5
:10047000059105497944CDE9031011466846FFF717
:100480000DFF0FB000BD0000E5FFFFFF007B00F097
:1004900080007047754600F02BF8AE4605006946AF
:1004A000534620F00700854618B020B5FFF7D6FE6A
:1004B000BDE820404FF000064FF000074FF0000865
:1004C0004FF0000B21F00701AC46ACE8C009ACE8E6
:1004D000C009ACE8C009ACE8C0098D46704710B54A
:1004E0000446AFF300802046BDE81040FFF79ABEF7
:1004F000004870479C56012000BFFEE7704700008F
:1005000010B57B2000F0F2FA012802D11CA0FFF701
:10051000B9FE792000F0EAFA012802D11DA0FFF708
:10052000B1FE7C2000F0E2FA012802D11FA0FFF703
:10053000A9FE7D2000F0DAFA012802D11EA0FFF703
:10054000A1FE7E2000F0D2FA012802D11EA0FFF702
:1005500099FE7C2000F0CAFA78B97D2000F0C6FA36
:1005600058B97E2000F0C2FA38B97A2000F0BEFAFD
:10057000012802D118A0FFF785FE00F039FA10BD5E
:10058000504F522F504452D6D8C9CFB5E7C6F4B613
:10059000AF0A0000504F522F5044522F424F52D6B4
:1005A000D8C9CFB5E7C6F4B6AF0A0000C8EDB8B4F5
:1005B000CEBBC6F4B6AF0A00B6C0C1A2BFB4C3C5B5
:1005C000B9B7C6F4B6AF0A00B4B0BFDABFB4C3C59A
:1005D000B9B7C6F4B6AF0A00D3B2B8B4CEBBC6F44E
:1005E000B6AF0A0030B10749096841F48061054A95
:1005F000116005E00349096821F48061014A116036
:1006000070470000003C024070B504460A460026D0
:10061000092502B909E0012A01D1160205E0022AE2
:1006200001D1160201E04FF4407600F09FF8054634
:10063000092D28D11548006820F44070134908603E
:1006400008460068304308600846006820F0F8005B
:1006500008600846006844F0020108430B4908603E
:100660000846006840F48030086000F07FF80546D6
:100670000648006820F00200044908600846006847
:1006800020F0F8000860284670BD0000103C0240D1
:1006900009201349096801F48031B1F5803F01D187
:1006A00001201CE00E49096801F0100109B1062083
:1006B00015E00B49096801F4807109B102200EE0D0
:1006C0000749096801F0EF0109B1072007E0044973
:1006D000096801F0020109B1082000E00920704713
:1006E0000C3C02400348006840F0004001490860AB
:1006F00070470000103C024030B502460C46092508
:1007000000F034F80546092D19D10E48006820F490
:1007100040700C4908600846006840F400700860AA
:100720000846006840F001000860146000F01EF800
:1007300005460448006820F0010002490860284688
:1007400030BD0000103C02400548006800F0004049
:1007500028B1044802490C39086003480860704712
:10076000103C024023016745AB89EFCD08B5092055
:100770000090FFF78DFF009002E0FFF789FF0090E7
:100780009DF800000128F8D09DF8000008BDF0B5E4
:100790000A4600210023002400BF3DE0012505FAA0
:1007A00001F3156805EA03049C4234D105684F0043
:1007B0000326BE40B543056015794E00B540066876
:1007C000354305601579012D02D01579022D16D11A
:1007D00085684F000326BE40B543856055794E00BD
:1007E000B540866835438560456801268E40B5432F
:1007F0004560456896798E40B6B235434560C56818
:100800004F000326BE40B543C560D5794E00B540C4
:10081000C6683543C560491C1029BFD3F0BDF0B58B
:10082000002300244D07ED0E02FA05F3CE1000F16F
:10083000200555F826504E07F70E0F26BE40B5434B
:10084000CF1000F1200646F82750CE1000F1200509
:1008500055F8265045EA0304CE1000F1200545F86E
:100860002640F0BD0246002013690B400BB1012069
:1008700000E000207047418370470183704700000B
:10088000012080F3138800BF00BFBFF34F8F0748DC
:10089000006800F4E06006490843001D0349086051
:1008A000BFF34F8F00BF00BFFEE700000CED00E07C
:1008B0000000FA057047704700BFFEE77047000070
:1008C00070B5002100230F22C4781CB3174C246894
:1008D00004F4E064C4F5E064C4F30721C1F1040446
:1008E000E3B20A4144789C40E1B284781440214349
:1008F0000C07210E0E4C05786155047804F01F0595
:100900000124AC4005786D11AD0005F1E025C5F876
:10091000004109E0047804F01F050124AC40054DB6
:100920000678761145F8264070BD00000CED00E019
:1009300000E400E080E100E002490143024A116066
:10094000704700000000FA050CED00E07047000061
:1009500029B1064A12680243044B1A6004E0034AB4
:1009600012688243014B1A60704700003038024021
:1009700029B1064A12680243044B1A6004E0034A94
:1009800012688243014B1A607047000040380240F1
:1009900029B1064A12680243044B1A6004E0034A74
:1009A00012688243014B1A607047000020380240F1
:1009B00029B1064A12680243044B1A6004E0034A54
:1009C00012688243014B1A607047000044380240AD
:1009D00029B1064A12680243044B1A6004E0034A34
:1009E00012688243014B1A607047000024380240AD
:1009F0000348006840F080700149086070470000BB
:100A000074380240F0B5002100220024022500269F
:100A10000223324F3F6807F00C0121B1042905D0B1
:100A2000082937D105E02E4F076036E02D4F0760CB
:100A300033E02A4F3F1F3F68C7F38056274F3F1FC1
:100A40003F6807F03F036EB1264FB7FBF3F7DFF8BF
:100A50008CC0ACF1040CDCF800C0CCF3881C07FBA4
:100A60000CF40CE01E4FB7FBF3F7DFF870C0ACF1ED
:100A7000040CDCF800C0CCF3881C07FB0CF4174F07
:100A80003F1F3F68C7F301477F1C7D00B4FBF5F7AC
:100A9000076002E0124F076000BF00BF0F4F3F68C2
:100AA00007F0F0010909104F7A5C0768D7404760EA
:100AB0000A4F3F6807F4E051890A0B4F7A5C476898
:100AC000D7408760054F3F6807F46041490B064FE8
:100AD0007A5C4768D740C760F0BD00000838024024
:100AE0000024F40040787D011200002010B501467A
:100AF0000022002300204A11012A02D10A4C236857
:100B000008E0022A03D1084C7034236802E0064C46
:100B10007434236801F01F02012494401C400CB17E
:100B2000012000E0002010BD0038024021B1028801
:100B300042F04002028004E002884FF6BF731A4080
:100B40000280704710B50022028802F441520B88DF
:100B50004C8823438C882343CC8823430C8923432C
:100B60004C8923438C892343CC8923431A43028035
:100B7000838B4FF2FF74234083830B8A038210BD63
:100B80000246002105E0481CC1B2C82901DD002051
:100B900070470E48008800F002000028F3D00B4890
:100BA000001D0280002105E0481CC1B2C82901DDFA
:100BB0000020EDE70548008800F001000028F3D090
:100BC0000248001D0088C0B2E2E70000083C004077
:100BD00001461C48814201D2002070471A488142D8
:100BE00001D20820F9E71948814201D21020F4E728
:100BF0001748814201D21820EFE71648814201D2FE
:100C00002020EAE71448814201D22820E5E7134872
:100C1000814201D23020E0E71148814201D23820E0
:100C2000DBE71048814201D24020D6E70E488142DE
:100C300001D24820D1E70D48814201D25020CCE7B3
:100C40005820CAE7004000080080000800C00008E3
:100C50000000010800000208000004080000060867
:100C60000000080800000A0800000C0800000E0838
:100C700001460868704700002DE9F04704460E461B
:100C800017464FF009080025A946B4F1006F02D3BA
:100C900004F0030008B1BDE8F087FFF755FD002020
:100CA000FFF7A0FC254604EB87091848854215D2BA
:100CB00011E02846FFF7DCFF401C58B12846FFF73B
:100CC00087FF82460221FFF79FFC8046B8F1090F9B
:100CD00001D002E02D1D4D45EBD300BFB8F1090F47
:100CE0000CD108E020463168FFF706FD092800D046
:100CF00003E0241D361D4C45F4D300BF0120FFF74F
:100D000071FCFFF7EFFC00BFC5E700000000FF1F0C
:100D1000704700000CB50020019000903448006836
:100D200040F480303249086000BF3148006800F468
:100D3000003000900198401C0190009818B901986B
:100D4000B0F5A04FF1D12A48006800F4003010B18E
:100D50000120009001E0002000900098012846D179
:100D600023484030006840F08050214940310860FD
:100D70002048006840F440401E4908601C48083084
:100D800000681B49083108600846006840F40040CC
:100D900008600846006840F4A05008601648091F23
:100DA0000860081F006840F08070091F086000BFDD
:100DB0000F48006800F000700028F9D040F205707C
:100DC0000E4908600A480830006820F0030008490E
:100DD000083108600846006840F00200086000BF63
:100DE00003480830006800F00C000828F8D10CBD5A
:100DF000003802400070004019544004003C02409A
:100E0000042808D14FF0E021096941F004014FF0B6
:100E1000E022116107E04FF0E021096921F00401AF
:100E20004FF0E022116170477047000010B515487F
:100E3000006840F47000134908601348006840F0EF
:100E400001001149086000200F49083108600E4870
:100E500000680E4908400C4908600D48091D0860EB
:100E6000081F006820F48020091F08600020064940
:100E70000C310860FFF74EFF4FF0006001498039E8
:100E8000086010BD88ED00E000380240FFFFF6FE6C
:100E90001030002410B5002440F225510A4800F01B
:100EA000ADF880B140F22551074800F013F806482C
:100EB00000F05EF9C4B2054801780078401C034A8E
:100EC00010700348445410BD001001400C00002075
:100ED0003802002010B50022002340F66A14A14217
:100EE00000D100BF0A1201249440A3B2DC43048065
:100EF00010BD21B1828942F40052828104E08289CE
:100F00004DF6FF731A4082817047000010B5044609
:100F10003248844208D101211020FFF759FD0021F9
:100F20001020FFF755FD57E02D48844209D10121DB
:100F30004804FFF72DFD00214FF40030FFF728FD96
:100F40004AE02848844209D101218804FFF720FDA6
:100F500000214FF48020FFF71BFD3DE02248844232
:100F600009D10121C804FFF713FD00214FF400202F
:100F7000FFF70EFD30E01D48844209D1012108052C
:100F8000FFF706FD00214FF48010FFF701FD23E07D
:100F90001748844208D101212020FFF719FD0021C4
:100FA0002020FFF715FD17E01248844209D10121E6
:100FB0008807FFF7EDFC00214FF08040FFF7E8FCC9
:100FC0000AE00D48844207D101214005FFF7E0FC0B
:100FD00000216005FFF7DCFC10BD0000001001409F
:100FE0000044004000480040004C004000500040D9
:100FF0000014014000780040007C004070B50246BB
:10100000002400230025002040F66A16B14200D1DA
:1010100000BFC1F3421501F01F03012606FA03F3D6
:10102000012D02D19689334006E0022D02D1168AA5
:10103000334001E0968A33400C12012606FA04F48C
:101040001688344013B10CB1012000E0002070BDBF
:10105000F0B50346002400260025002040F66A175C
:10106000B94200D100BF1846C1F3421401F01F0677
:10107000012707FA06F5012C01D10C3004E0022CFF
:1010800001D1103000E014301AB107682F43076017
:1010900002E00768AF430760F0BD00002DE9FF479D
:1010A00005460E460024A14600BFA046B08900B107
:1010B00000BF2C8A24F44054F08804432C82AC896D
:1010C00041F20C608443B088318908437189084338
:1010D0000443AC81AC8A24F44074B0890443AC82EC
:1010E0006846FFF78FFC2048854202D01F488542A2
:1010F00002D1DDF80C9001E0DDF80890A88900F439
:10110000004040B109EBC90000EB0910316849000B
:10111000B0FBF1F707E009EBC90000EB09103168FB
:101120008900B0FBF1F76420B7FBF0F0040120095F
:10113000642101FB1078A88900F4004040B13220FE
:1011400000EBC800B0FBF1F000F00700044308E03A
:10115000322000EB08106421B0FBF1F000F00F002A
:1011600004432C81BDE8FF870010014000140140BA
:1011700001468888C0F30800704700BFFEE7000002
:1011800010B500F01FF900F0B3F800200549086021
:10119000C720FFF7F5FC01200349C1F89C0200F0CD
:1011A000A7F810BD9C8241420080414210B5044620
:1011B000240300F007F900F09BF800200B490860B9
:1011C0002020FFF7DDFCC4F30740FFF7D9FCC4F390
:1011D0000720FFF7D5FCE0B2FFF7D2FC012004495D
:1011E000C1F89C0200F084F810BD00009C824142CE
:1011F0000080414210B5002400F08CFD0120084918
:10120000086000F025FD00F039F80649088001204B
:101210000549C1F89C020CB1FFF7B2FF10BD0000F8
:101220009C82414206000020008041422DE9F041AD
:1012300006460C46174600200F4908600320FFF7BA
:101240009FFCC4F30740FFF79BFCC4F30720FFF7A4
:1012500097FCE0B2FFF794FC002505E0FF20FFF7C4
:101260008FFC7055681C85B2BD42F7DB0120024936
:101270000860BDE8F08100009C82414210B5002466
:1012800000200E4908609020FFF77AFC0020FFF74D
:1012900077FC0020FFF774FC0020FFF771FCFF20B3
:1012A000FFF76EFC44EA0024FF20FFF769FC0443CB
:1012B00001200349C1F89C02204610BD9C82414296
:1012C0000080414210B50024002007490860052035
:1012D000FFF756FCFF20FFF753FC044601200349AB
:1012E000C1F89C02204610BD9C82414200804142D0
:1012F00010B500BFFFF7E6FF00F001000028F9D1AC
:1013000010BD2DE9F05F82460F4616464FF480511E
:10131000002000F085FA81464FEA1738C7F30B0B1F
:10132000CBF58054A64200D8344642E04FEA08315B
:101330004FF480524846FFF779FF002507E00BEB9A
:10134000050019F80000FF2800D002E06D1CA5423E
:10135000F5D300BFA54215D24046FFF727FF002571
:1013600006E01AF8050005EB0B0109F801006D1CF9
:10137000A542F6D34FEA08314FF48052484600F0B8
:1013800031F804E0A2B23946504600F02BF8A642EC
:1013900000D10FE008F101084FF0000BA2442744F0
:1013A000301B86B2B6F5805F02DD4FF4805400E05A
:1013B0003446BBE700BF4946002000F01FFABDE8F5
:1013C000F09F000010B50020044908600620FFF7D8
:1013D000D7FB01200249C1F89C0210BD9C8241420A
:1013E000008041422DE9F04107460E461446F0B216
:1013F000C0F58075AC4200DC254612E02A46314635
:10140000384600F013F8AC4200D10BE02F442E44D4
:10141000601B84B2B4F5807F02DD4FF4807500E07C
:101420002546EBE700BFBDE8F08100002DE9F04163
:1014300006460C461746FFF7C5FF00200F49086017
:101440000220FFF79DFBC4F30740FFF799FBC4F3AD
:101450000720FFF795FBE0B2FFF792FB002504E0C1
:10146000705DFFF78DFB681C85B2BD42F8DB012083
:1014700002490860FFF73CFFBDE8F0819C824142D1
:1014800000BF704710B504466FF00400FFF7B8FCCA
:10149000E11704EB5171C1F3C701074A11701046FF
:1014A000007800EB4001C1EBC0104FF6FF7101EA7C
:1014B000C0000249088010BD0E000020100000206E
:1014C00070B504464FF4077094FBF0F0C6B24FF4C9
:1014D000077094FBF0F100FB114085B205E04FF47A
:1014E000077000F009F8701EC6B2002EF7D115B1D2
:1014F000284600F001F870BD0146114A12884A439F
:101500004FF0E0235A6100229A611A46126942F0B4
:1015100001021A6100BF4FF0E022106900F00102E1
:101520001AB100F48032002AF5D04FF0E02212699F
:1015300022F001024FF0E0231A6100229A61704705
:101540001000002042B2054B9A8000BF034A128867
:1015500002F04002002AF9D070470000001001405C
:1015600010B50446206807490840B0F1005F08D173
:101570006068054908602068FEF75FFE0248006861
:10158000804710BD0000FE2F000000202DE9FF5F06
:1015900006460F4690460025B3463C46A94625E040
:1015A0002078009060780190A0780290E078039015
:1015B000DDE9000140EA0120029940EA0140039977
:1015C00040EA016A241D2846691C8DB20C4941F885
:1015D00020A0802D06D1002580225846FFF74CFB25
:1015E0000BF5007B09F104001FFA80F9C145D7D340
:1015F00025B12A4602495846FFF73EFBBDE8FF9F4A
:10160000380000201CB501211A20FFF7A1F94FF482
:101610004070009001208DF8040000208DF8060035
:101620008DF8070003208DF8050069461548FFF77F
:10163000AEF84FF440711348FFF71FF901200090F6
:101640008DF8040000208DF806008DF807000320B7
:101650008DF8050069460C48FFF799F801210A4802
:10166000FFF70BF90120009000208DF804008DF8A1
:10167000070001208DF8050069460448FFF787F848
:101680001CBD00000004024000100240000C02409B
:1016900070B50546642095FBF0F100FB1150C4B213
:1016A000322C0FDA1148007860B901200F49087018
:1016B0004FF470710E48FFF7DEF87F210D48FFF7F9
:1016C000DAF811E0322C0FDB0848007801280BD142
:1016D0000020064908704FF470710548FFF7CDF8F7
:1016E0007F210448FFF7C9F870BD00000400002006
:1016F000000402400010024010B500F069F94FF4F8
:10170000E13000F033FAFFF77DFFFEF7F9FE0BA0A2
:10171000FEF7B8FDFFF76EFD10A0FEF7B3FD4FF426
:101720007A710420FFF7C7F814A0FEF7ABFD00F0B4
:101730005BF91AA0FEF7A6FD002010BD0A2F626F0C
:101740006F746C6F616465722F6D61696E282920FA
:10175000313131202E2E2E0A000000000A2F626F38
:101760006F746C6F616465722F6D61696E282920DA
:10177000323232202E2E2E0A000000000A2F626F15
:101780006F746C6F616465722F6D61696E282920BA
:10179000333333202E2E2E0A000000000A2F626FF2
:1017A0006F746C6F616465722F6D61696E2829209A
:1017B000343434202E2E2E0A0000000010B50146CD
:1017C0000023002207E00B4850F8210030F81200F7
:1017D00000B15B1C521C084850F821009042F2D81E
:1017E00064205843044C54F82140B0FBF4F0C0B2DC
:1017F00010BD000030000020681D000870B50546CF
:101800000C4604B970BD054850F82500261A31462B
:10181000284600F019F800BFF4E700002C00002073
:1018200070B504460E463146204600F065F8054680
:10183000681C08B9002070BD024850F824002844F4
:10184000F9E700002C0000202DE9F04104460E4687
:101850001548005D38B9144810380168204688479B
:101860000120BDE8F081114850F82400B04219D998
:101870000F4850F82400B6FBF0F10B48001F50F859
:10188000240030F81120002508E000230648001F3E
:1018900050F824004F1920F817306D1C9542F4DBE6
:1018A0000020DEE70220DCE734000020701D000885
:1018B0006C1D000810B504460C4951F824104A006C
:1018C0000B4951F82400002100F06EF8094951F845
:1018D00024200749091F51F82400002100F064F872
:1018E00001210348001D015510BD0000681D0008BE
:1018F00030000020701D00082DE9F04704460F4617
:101900000025A9462548005D20B924481038016803
:10191000204688471FB94FF0FF30BDE8F0872048C8
:1019200050F82400B7FBF0F086B21D4850F82400B0
:10193000B7FBF0F100FB117008B1701C86B21948BA
:1019400050F82400451E24E01448001F50F82400DD
:1019500030F8150020B909F101001FFA80F901E003
:101960004FF00009B14513D14FF0000809E00B48D2
:10197000001F50F8240005EB080120F8116008F161
:101980000108B045F3D3064850F824006843C4E783
:101990006D1E002DD8DA4FF0FF30BEE73400002076
:1019A0006C1D0008681D000830B5034601E003F80F
:1019B000011B141EA2F10102F9D130BD10B504467D
:1019C0000C2202492046FFF731FC10BD00FC3F000D
:1019D00010B5FFF72BFAA820FFF754FD4FF4A060D5
:1019E000FEF7AAFF10BD00002DE9FE430020009085
:1019F000019002900027804600251E260AE0FEF78F
:101A000059FF6420FFF75CFD01213448FEF72AFFEF
:101A100000B904E0301EA6F10101CEB2EFD100BF43
:101A2000C82604E00A20FFF74BFDFEF743FF301EF7
:101A3000A6F10101CEB2F5D1FFF73CFF6846FFF7F2
:101A4000BDFF0098012809D025A0FEF71BFCFEF77A
:101A500031FF2C48FFF784FDBDE8FE832AA0FEF786
:101A600011FC00200090684600F06EF9019800F12A
:101A700040010020FFF7D4FE054629A0DDE9012141
:101A8000FEF700FC002418E0FEF714FFE0B2FFF7B9
:101A9000FFFD0198604300F54017019882B2394676
:101AA0002846FFF7C3FB1749019804FB0018294695
:101AB0004046019AFFF76AFD641C0298A042E3D8F1
:101AC00029460020FFF79AFEFEF7F4FE21A0FEF75C
:101AD000D9FB0C48FFF744FD00BFBDE7000C0240F6
:101AE0000ACEDED0E8C9FDBCB6A3ACD6B1BDD3D614
:101AF000B4D0D0206D61696E20C4A3BFE9202E2E22
:101B00002E0A0000000001080AD6B4D0D0C9FDBCDE
:101B1000B6B3CCD0F2202E2E2E2E2E200A0000009E
:101B20000AD6B4D0D0C9FDBCB6B2CECAFD2C7365FE
:101B30006374696F6E5F636F756E743A2025752CE0
:101B40002073656374696F6E5F73697A653A2025E7
:101B5000750A00000AC9FDBCB6CDEAB1CFA3A1CC7D
:101B6000F8D7AA202E2E2E0A0000000010B588B04B
:101B7000044601210846FEF7EBFE01211020FEF786
:101B800017FF072209213048FEF749FE07220A21E4
:101B90002D48FEF744FE4FF40070069002208DF8A9
:101BA0001C008DF81D0000208DF81E0001208DF80E
:101BB0001F0006A92448FEF7EAFD4FF48060069056
:101BC00002208DF81C008DF81D0000208DF81E00ED
:101BD00001208DF81F0006A91B48FEF7D8FD25201F
:101BE0008DF8040003208DF8050002208DF8060012
:101BF00001208DF8070001A8FEF762FE1348FFF7E9
:101C000085F902940020ADF80C00ADF80E00ADF897
:101C10001000ADF814000C20ADF8120002A90B481A
:101C2000FFF73CFA012240F225510848FFF710FA6D
:101C300040F226610548FFF74DF901210348FFF7FF
:101C400058F908B010BD000000000240001001402B
:101C500000B587B001210220FEF77AFE0121C803FA
:101C6000FEF786FE3820059002208DF8180000202F
:101C70008DF81A0003208DF8190000208DF81B0044
:101C800005A92248FEF783FD062203211F48FEF71F
:101C9000C6FD062204211D48FEF7C1FD06220521CE
:101CA0001A48FEF7BCFD0121C803FEF771FE0021B2
:101CB0004FF40040FEF76CFE0020ADF800004FF43A
:101CC0008270ADF802000020ADF804000220ADF8EB
:101CD00006000120ADF808004002ADF80A00082017
:101CE000ADF80C000020ADF80E000720ADF8100094
:101CF00069460748FEF726FF01210548FEF716FF53
:101D0000FF20FEF73DFF07B000BD000000040240C9
:101D1000003C00401CB501210820FEF719FE802080
:101D2000009001208DF8040000208DF806000320AB
:101D30008DF8050001208DF8070069460148FEF77F
:101D400026FD1CBD000C024010B504460C220249C1
:101D50002046FFF7D6FA10BD00FC3F004FF0407060
:101D6000E1EE100A70470000000A000020000000A9
:101D700000400100941D0008000000203800000011
:101D8000C4010008CC1D000838000020C85C010018
:101D9000E00100080000000000000000000000005A
:101DA0000000000000000000000001020304010226
:101DB0000304060708090000B5180008BD1700084D
:0C1DC0009C0200209C420120000000005A
:040000050800018965
:00000001FF
